:020000041000EA
:1000000000B5324B212058609868022188439860DF
:10001000D860186158612E4B002199600221596106
:100020000121F02299502B49196001219960352056
:1000300000F044F80222904214D00621196600F024
:1000400034F8196E01211966002018661A6600F04E
:100050002CF8196E196E196E052000F02FF8012189
:100060000842F9D1002199601B49196000215960AB
:100070001A491B48016001219960EB211966A021F2
:10008000196600F012F800219960164914480160C1
:100090000121996001BC002800D000471248134993
:1000A000086003C880F30888084703B5996A0420EC
:1000B0000142FBD001200142F8D103BD02B5186610
:1000C0001866FFF7F2FF186E186E02BD00000240BE
:1000D000000000180000070000035F00212200005C
:1000E000F4000018222000A00001001008ED00E03C
:1000F00000000000000000000000000074B24E7A12
:1001000000200420F7010010C3010010C5010010F9
:10011000C1010010C1010010C1010010C101001097
:10012000C1010010C1010010C1010010C701001081
:10013000C1010010C1010010C9010010CB01001065
:10014000CD010010CD010010CD010010CD01001037
:10015000CD010010CD010010CD010010CD01001027
:10016000CD010010CD010010CD010010CD01001017
:10017000CD010010CD010010CD010010CD01001007
:10018000CD010010CD010010CD010010CD010010F7
:10019000CD010010CD010010CD010010CD010010E7
:1001A000CD010010CD010010CD010010CD010010D7
:1001B000CD010010CD010010CD010010CD010010C7
:1001C00000BE00BE00BE00BE00BE00BEEFF3058054
:1001D000103800BEF2EB8871A8B80610C8B8061037
:1001E0003402001090A31AE700201F49086006C8D7
:1001F00081F3088810471D48006800282FD10DA4FE
:100200000ECC002902D000F012F8F9E71849194A7B
:10021000002000E001C19142FCD1174988471749ED
:1002200088471749884700BEFDE701C901C29A42C5
:10023000FBD37047C8B80610C0000020101600207D
:1002400018CE0610000004200000042018CE06106E
:10025000001004200010042000000000704709482E
:100260000AF0C4FC0047000008ED00E0000000D0E8
:100270003016002074D9002095DD0010ED03001029
:1002800051DD00105756000006005250ABB36053CA
:100290006006031006005250861C0302700603100D
:1002A000060052505422A29D7C06031005005250B5
:1002B000DE65F46818CE0610F8B5C0460448054B54
:1002C00010B5834203D0044B002B00D0984710BDDB
:1002D00010160020101600200000000006480749F4
:1002E000091A8B10C90FC91810B5491003D0044B57
:1002F000002B00D0984710BD1016002010160020CB
:100300000000000010B5074C2378002B09D1FFF73F
:10031000D5FF054B002B02D0044800E000BF0123AD
:10032000237010BD701700200000000058B60210A6
:10033000054B10B5002B03D00449054800E000BF71
:10034000FFF7CCFF10BDC04600000000741700206E
:1003500058B6021010B5016801480FF041FC10BDFD
:1003600058B6021010B50C001300016822000248B4
:100370000FF036FC10BDC04684B6021010B50A005E
:10038000016802480FF02CFC10BDC046B4B6021044
:10039000F0B583B006000D00140009680E480FF098
:1003A0001FFC0E480FF0ECFB002C01D003B0F0BD99
:1003B0000B4C0127019700952300012209493000C9
:1003C0000DF0ECF90197009523000022064930005A
:1003D0000DF0E4F9EAE7C046DCB6021008B70210F7
:1003E0007D0300101CB7021028B7021030B5A5B06D
:1003F0000FF002FC002408E021002F480FF0F0FB72
:10040000FA2080000BF0E4FE0134132CF4DD26F01A
:100410008FFD00283BD126F05FFC284B284A294954
:10042000294826F023FD002838D1142101200FF09F
:100430005BFA264B186023A9254809F0CDFC041E61
:1004400031D0224C25680DF067FA68602068214B96
:1004500001930090204B214A23A940680DF064FAD3
:10046000041E24D1194B1B681D4A1E4958680DF003
:1004700047FA03AA1C4B13CB13C211001A680A6077
:100480001B790B71FA2080000BF0A2FEFAE71748E7
:100490000FF076FB0124200025B030BD14480FF08A
:1004A0006FFB0124F7E713480FF06AFBF3E71248EC
:1004B0000FF066FBEFE7C04634B70210307500005E
:1004C000040040005CB7021068B702108CD6002010
:1004D00090B70210D8B70210910300105B0700001C
:1004E0005503001065030010BCB7021044B702109A
:1004F0007CB70210A0B70210ACB7021010B501F023
:100500009BFA00F01EFB00F091FB00F035FC06F0BA
:1005100057FA02F0B5F800F018FA06F069F910BDC4
:100520000302000A184380B2704703060202FF214B
:1005300009040A401343020AFF2109020A40134337
:10054000000E18437047000000280AD0C07A002827
:1005500009D1431C9B00054A9B58002B04D0012065
:1005600002E0002000E000207047C0461433002065
:1005700010B50AF02DFA80B2002301E00133DBB29E
:10058000032B0FD81A01D218120107498A18927A40
:10059000022AF3D11A01D21812018A181289824252
:1005A000ECD1E6E710BDC0461C330020F0B5D646BE
:1005B0004F464646C0B506008846002401E0013497
:1005C000E4B2032C23D8250063001B199B00314A99
:1005D0009F58002FF3D063001B199B00D3181B7A80
:1005E000B342ECD130018019000110302A4BC01801
:1005F0009246630099461B199B0053445A68414632
:10060000B8474D44AD0000235246AB50D7E7002316
:1006100001E00133DBB2032B1BD8B342F9D01A013E
:10062000D21812011C498A18927A022AF1D11A01B1
:10063000D21812018A18D07B3201921912018A183D
:10064000D27B9042E5D133019B191B01CB180422C8
:10065000DA7333019B191B010F4AD318DB7B032B81
:1006600004D9E0BCBA46B146A846F0BD0B4C9B008D
:10067000185906F0A3FC084A300183191B01D3184E
:10068000DB7B9B0000211951801900011018042305
:10069000C373E6E7E43200201C330020D43200208C
:1006A000F0B5D6464F464646C0B584B080460301F5
:1006B00043441B01534AD318DB7A012B34D89B00E7
:1006C000514A9B58002B32D0040144442401103479
:1006D0004C4BE41820002AF075FDA022123081B2A4
:1006E0009200362000F0DCFD8146002800D185E034
:1006F00001AD0C22002128000FF014F943461B0124
:1007000043441B013F4AD3181889FFF709FF28808B
:100710000123AB70FF33AB800C222900484601F067
:100720001BF8661E0C2737E038480DF0DDFB002172
:10073000FFF73CFF4346180140440701314BDF19E6
:100740000023BB720024200004B0E0BCBA46B146CE
:10075000A846F0BD0134E4B2013633782E2B01D027
:10076000002BF7D1731B9BB29A463B19284A934240
:1007700016DC22003900484601F0A9F87B1C9BB228
:1007800052462900484601F033F83C19A5B26F1CC7
:10079000BFB23378002B09D0013635000024DCE7E6
:1007A000484600F03FFD06246442CCE700223900B1
:1007B000484601F08CF80235ABB2802252006946FF
:1007C0000A804A80FC3A484601F012F80D49434637
:1007D0001B0142469A1812018A18D07BD37A9B00DB
:1007E000094AD21880000B4940583523494606F083
:1007F0005DFB0400484600F015FDA4E701246442B7
:10080000A1E7C0461C33002014330020F8B70210C3
:10081000FEFF0000D432002070B504000001001972
:100820000001414BC018032C20D823011B191B01C8
:100830003D4AD3189B7A022B34D01AD8002B14D0FF
:10084000012B00D06CE0FFF793FE3749220113190A
:100850001B01CB181881022098720020D872012544
:100860001D7358732000FFF71BFF70BD2F480DF05C
:100870003BFB032B54D123011B191B012A4A9B5814
:10088000002B07D0013B22011219120126495350B7
:10089000002BEAD120010419240123480419002364
:1008A000A372E2E723011B191B011F4AD218137B15
:1008B000013BDBB21373002BD7D123011B191B01A2
:1008C000194AD218537B0133DBB25373042B09D07E
:1008D00022011219120114498A1813732000FFF71C
:1008E000DFFEC2E7FFF730FE00280DD00E492201DF
:1008F00013191B01CB18D87A0130D8720120187354
:100900001A0000235373E9E700212000FFF74EFE91
:10091000200104192401044B1C190023A372A4E72D
:1009200003480DF0E1FAC0461C33002010B8021055
:100930002CB8021010B5002404E02000FFF76CFF73
:100940000134E4B2032CF8D910BD7047012800D956
:100950007047002904D080000A68044BC250F7E7B2
:100960008000034B1A68014BC250F1E7143300209A
:100970002CDF021010B5FFF7DDFF10BD30B583B0DE
:100980006B460022DA8001231D000540184206D084
:10099000002904DD02786B46DA7101390130032247
:1009A00013000340104209D0012903DD03880239F6
:1009B000023003E0002301E00839200007290CDDA4
:1009C0000268D218934200D9013204000834436807
:1009D0009B189A42F0D90133EEE71A0C1B041B0C4A
:1009E000D31803E002889B18023902300129F9DC90
:1009F000002902DD01786A4691716A460632128842
:100A0000D318180C1B041B0CC318180C1B041B0C4C
:100A1000C018002D05D003061B0C020AFF20104051
:100A2000184380B203B030BDF0B583B00600019129
:100A300015001C00002700E03668002E15D07189D3
:100A40007068FFF79BFF0019040C0004000C2418C9
:100A50007389DB07F0D57B425F41FFB22206120C9F
:100A6000230AFF241C401443E6E7002F05D022068A
:100A7000120C230AFF241C4014436B469888FFF78E
:100A80004FFD24182800FFF74BFD2018030C00042D
:100A9000000C1818030C0004000C1818C04380B296
:100AA00003B0F0BD70B51C6825042D0C230C5B1938
:100AB000049C246825042D0CED18230C5B191C0CD8
:100AC0001B041B0CE3181C0C1B041B0CE318FFF786
:100AD000ABFF70BD10B582B0049C0094FFF7E2FF3D
:100AE00002B010BD10B5FFF749FFC04380B210BD82
:100AF00070B505000026002400E02D68002D15D0FB
:100B000069896868FFF73AFF0019040C0004000CBB
:100B100024186B89DB07F0D573425E41F6B22306D9
:100B20001B0C240AFF2004401C43E6E7002E05D0DE
:100B300023061B0C240AFF2004401C43E04380B220
:100B400070BD70477047000010B50EF0BBFE041E6C
:100B500006D0C31C03229343834206D1200010BD5C
:100B600009F096FB09F096FBF8E701480DF0BCF997
:100B70004CB8021010B5002807D0C31C03229343C1
:100B8000834205D10EF0C2FE10BD03480DF0ACF952
:100B900002480DF0A9F9C04670B8021080B80210E2
:100BA00010B50EF0A1FE10BD10B5040009F070FBE9
:100BB000E3681C68002C0AD022681A60A30703D1DE
:100BC00009F068FB200010BD02480DF08DF909F016
:100BD00061FBF7E798B8021070B505000C008B07B1
:100BE00009D109F055FBEB681B682360EB681C60BA
:100BF00009F050FB70BD01480DF076F9BCB8021049
:100C0000C36800221A6083680333033293430022CF
:100C100007E0C16809681960C1680B6081885B18CA
:100C20000132C1889142F4DC7047000010B5002405
:100C300006E0A200044BD058FFF7E2FF0134A4B253
:100C4000092CF6D910BDC04628BA021010B50928E3
:100C500005D88000044BC058FFF7A6FF10BD03481D
:100C60000EF0BEFF0020F9E728BA0210DCB802102F
:100C700010B5092807D8002904D08000044BC058BB
:100C8000FFF7AAFF10BD03480EF0AAFFFAE7C0461F
:100C900028BA0210FCB802100B688268934206D092
:100CA000002902D08360012070470023FAE700206A
:100CB000FAE70B68C268934206D0002902D0C360ED
:100CC000012070470023FAE70020FAE70C20404299
:100CD000704770B504000D0002F004F929002000EF
:100CE00006F09CF92900200000F08AFE70BD00008B
:100CF00010B500280DD03923C25C343B1340052BBE
:100D000006D1CB0704D54368002B01D0130703D4C9
:100D100010BD03480DF0E8F8011D07F067FDF7E787
:100D200050BA021030B583B005000C001000002945
:100D300008D0002A09D06B680A689A4208D10020BE
:100D400003B030BD0B480DF0CFF80A480DF0CCF8D9
:100D50000192036001A9FFF7BCFF23686B600121CA
:100D60002800FFF7C5FFEB69002B01D0280098474A
:100D70000120E5E774BA021070470000F0B5C646DE
:100D800000B582B005000C0017001E00002920D01D
:100D9000002F20D0002E20D0002C02D02368002B62
:100DA0001DD101AA21002800FFF7BCFF01239846AE
:100DB000002239002800FFF76FFF002231002800D1
:100DC000FFF777FF4346002B0CD002B080BCB8463B
:100DD000F0BD074CDCE7064FDCE7054EDCE70023FF
:100DE0009846E5E701AA21002800FFF79BFFECE702
:100DF0002CDF0210F0B5C64600B504000E00170047
:100E00009846002832D0079B002B34D0002937D0D9
:100E1000002F37D04346002B36D000256560A560F3
:100E2000E560354B6361258600223923E2542000BA
:100E30002830042200210EF075FDE5612562069B35
:100E400063622E4B1A783C23E254089B236143468D
:100E50003A0031002000FFF791FF2000079B9847E0
:100E6000002823D0002080BCB846F0BD24480EF0F6
:100E7000B7FE2000F7E723480EF0B2FE0020F2E7AD
:100E8000214EC5E7204FC5E71F4B9846C5E7C33B3A
:100E90000022E2540EE01D480DF026F81C480DF02B
:100EA00023F801313C22A154002B15D03C23E35CF4
:100EB000FF2BECD0174B1D682B000022002BF3D02A
:100EC0009C42E8D00132FF2AE8DC3C21585C615C9E
:100ED0008842E6D01B68F1E73C33E35CFE2B07D089
:100EE0000133064A137025600A4B1C602000BAE7E4
:100EF000024B00221A70F6E7CD0C001068D90020D2
:100F000084BA0210A0BA02102CDF0210C4BA021078
:100F1000D8BA021094D60020014B18607047C04622
:100F200090D6002010B5041E10D03923C35CDA0718
:100F30000BD40122134339228354C369002B00D000
:100F4000984703212000FFF7D3FE10BD01480EF0A3
:100F500047FEFAE708BB021010B5041E0FD0392374
:100F6000C35CDA070AD501229343383283541B0746
:100F700009D4E369002B01D02000984710BD034835
:100F80000EF02EFEFAE707F083FBF2E724BB021017
:100F900010B5041E28D04368002B12D13923E35C1E
:100FA000DB0713D4114B1B68A34213D0104B1B68F3
:100FB000A34213D0002B17D01A68A24212D01300FC
:100FC000F8E704300021FFF784FEE7E72000FFF791
:100FD000C3FFE7E70020FFF79FFFE7E72268044B26
:100FE0001A6001E022681A6010BDC04690D6002049
:100FF00094D6002010B5041E04D03923C35C5A07D0
:1010000004D510BD09480EF0EBFDFAE704221343A6
:101010003922835406F046FF03212000FFF768FEC3
:10102000236A002BEDD020009847EAE744BB02106A
:1010300010B500280CD03923C35C5A0707D5042209
:10104000934335328354036A002B00D0984710BD78
:1010500001480EF0C5FDFAE768BB0210021E0BD076
:10106000064B1868002808D03C23C35C0133DBB270
:10107000934202D00068F5E70020704794D6002024
:1010800030B504AC257800240460416002814381BE
:1010900003AB1B780373457301238373C47330BDA3
:1010A00002E0C91A89B20068002802D043898B4245
:1010B000F7D9002A00D011807047000010B509F060
:1010C000E7F8034B01221A7009F0E4F810BDC0469E
:1010D0006AD9002070B500281AD080235B0299429B
:1010E00021D2002921D08CB203891B199BB2A342C3
:1010F0001DD30C254557002D0DDB002A19D0426861
:10110000511A4160428914194481038100200BE087
:1011100009480CF0E9FE4268511A020010328A4276
:10112000EFD9012000E0012070BD0020FCE7012084
:10113000FAE70120F8E7C04664D8021010B509F0BC
:10114000A7F8084B00221A7009F0A4F8064B18689B
:1011500000E0C068002804D0436F002BF9D001F0F4
:101160003FFD10BD6AD9002008D90020F0B583B03A
:1011700007000E001500412A01D0012A0FD10820D6
:10118000FFF764FD041E07D0002301930095330090
:1011900032003900FFF774FF200003B0F0BD0148B2
:1011A0000CF0A2FE8CBB021010B50022FFF792FFDC
:1011B00010BD000010B5002814D080235B029942B6
:1011C00018D2002918D08AB2438993420DD34468BB
:1011D000A446614441609B1A438103899A1A0281A3
:1011E000002010BD05480CF07FFE05480EF0F8FC0D
:1011F0000120F6E70120F4E70020F2E764D80210AE
:10120000A0BB021010B5002902DBFFF763FF10BD81
:101210004942FFF7CFFFFAE710B50122FFF7F2FFCF
:1012200010BD000070B5051E01D000260CE0194865
:101230000CF05AFE18480CF057FE29000920FFF761
:1012400017FD0136F6B22500002D21D009F020F857
:10125000AC7B002CEED0013CE4B2AC7309F01AF880
:10126000002C15D12C682A7B0F231340022BE4D0CD
:10127000012B05D0002B08D12800FFF77BFCE0E70D
:1012800029000820FFF7F4FCDBE704480CF02CFEF3
:10129000300070BD64D80210C0BB0210D8BB021071
:1012A000F0B5D6464F464646C0B582B005000F00A1
:1012B000904684B2C1235B009A423CD011D8012AE7
:1012C00002D0412A00D078E0424639000020FFF7E2
:1012D0004DFF8146484602B0E0BCBA46B146A8463A
:1012E000F0BDA0239B009A4267D1C31C03218B430E
:1012F000FA1C8A439B18180010309A4260D8824228
:1013000061D8FFF721FC81460028E3D02900103185
:10131000494403310324A14300230193434600932E
:101320003B003A00FFF7ACFE4B465B682342D1D04E
:1013300026480CF0D9FD00250023994626E0FFF74A
:10134000BDFE4B46002B02D04846FFF76BFFA94677
:10135000C0E7B6B221001031691803310324A1435C
:10136000002301934346009333003A002800FFF71F
:1013700087FE6B6823421BD14B46002B1BD0534684
:101380001D60BF1BBFB20024002FA3D0AA460920B6
:10139000FFF75CFC051ED2D0E31C032293439AB2F4
:1013A0000B4B9B1A9BB21E1CBB42D2D93E1CD0E7F2
:1013B00008480CF099FDA946E3E707480CF094FDB6
:1013C0000023994686E70023994683E750BC021024
:1013D000EC050000ECBB02107CBC021070B5041ED2
:1013E00012D00089884220D90D006389AB420ED209
:1013F000ED1AADB223890A1A9B1823812468002CA8
:10140000F3D112480CF070FD11480CF06DFD227BF9
:10141000120701D1AB4209D16581258120680028DE
:1014200001D0FFF7FFFE0023236070BD6368191B26
:1014300069182000FFF786FB002804D08442EBD017
:1014400004480CF051FD04480CF04EFDB0BC0210F5
:1014500098BC0210E4BC0210C8BC021003000020BB
:1014600002E0013080B21B68002BFAD17047000007
:1014700010B5041E09D008F00BFFA37B0133A37342
:1014800008F008FFA37B002B00D010BD01480CF032
:101490002BFDC04600BD021010B5002801D0002968
:1014A00008D10C480EF09CFB0FE003890C891B1936
:1014B000038110000268002AF7D103894289934210
:1014C00004D10A899B180381016010BD02480CF009
:1014D0000BFDC04614BD02104CBD021010B50C002F
:1014E000FFF7DAFF2000FFF7C3FF10BDF8B5CE46C7
:1014F000474680B506000D1E914698460AD00A89D7
:101500004A4507D300280BD002894B449A4207DB97
:10151000002726E03D480EF063FB1020404270E0BB
:101520003B480EF05DFB102040426AE039480CF069
:10153000DBFC39480CF0D8FC4B46002B36D1002799
:10154000424539D0002D03D06A892B899A4245D073
:10155000002E03D0728933899A4248D04B46002B23
:101560004ED0738942469B1A6A89D21B934200D39C
:1015700013004C46994500D91C00706840446B68C4
:10158000D91922000EF0D4F9A0443F194B461C1B78
:10159000A3B2994672894245C8D36B89BB42C8D36E
:1015A000CED82D68002DC7D00027C9E71B480EF004
:1015B00017FB1020404224E03668002E02D00023A2
:1015C0009846BFE74B46002B02D100239846B9E767
:1015D00013480EF005FB1020404212E02B68002B50
:1015E000B6D010480EF0FCFA0620404209E03368FD
:1015F000002BB3D00B480EF0F3FA0620404200E077
:101600000020C0BCB946B046F8BDC0467CBD021043
:10161000B0BD0210E0BD0210F8BD021014BE0210F1
:1016200024BE021034BE021010B5002904D00A896D
:101630000023FFF75BFF10BD02480EF0D1FA102027
:101640004042F8E76CBE0210F8B5CE46474680B57A
:101650000500884691461900002805D04346002B16
:101660000BD00027002625E019480EF0B9FA002714
:101670003800C0BCB946B046F8BD16480EF0B0FA06
:101680000027F5E76C89641AA4B2A14500D24C4644
:10169000434698196B689C46614422000EF048F955
:1016A000E719BFB23619B6B24B461C1BA3B2994616
:1016B00000212D684B46002BDAD0002DD8D0002910
:1016C000E0D06B898B42DDD8C91A89B2F1E7C046F8
:1016D00088BE0210A8BE021070B582B004000E00D1
:1016E0001D0006AB1988002814D0002E17D0954293
:1016F0001AD86B469A1DFFF7D3FC002808D0418901
:101700006B4606331B885A19914212DB4068C01899
:1017100002B070BD0C480EF063FA2000F8E70B48E9
:101720000EF05EFA3000F3E708480EF059FA002098
:10173000EEE72A003100FFF787FFA84201D1300011
:10174000E6E70020E4E7C046CCBE0210F0BE02107F
:1017500010B5FFF7A5FC10BDF8B5CE46474680B5DD
:101760000500884616009146002806D000290AD0B8
:10177000038993420DD300271DE018480EF030FA7C
:101780001020404223E016480EF02AFA1020404272
:101790001DE014480EF024FA0120404217E01248E0
:1017A0000CF0A2FB4346D919220068680EF0C0F87D
:1017B000361B3F192D68002E06D0002DEFD06C8906
:1017C000B442EFD33400EDE74F4504D10020C0BC54
:1017D000B946B046F8BD05480CF086FB18BF0210AC
:1017E00030BF02104CBF02106CBF021084BF021049
:1017F000F0B583B00F00140019006B469A1DFFF777
:10180000A7FF061E24D002896B46D88803199A4286
:1018100021DB7389984212D21A1A944212DD95B2D2
:1018200073689C4660442A0039000EF081F8621B00
:1018300092B27919002A07D1002003B0F0BD074801
:101840000CF052FB2500EBE73068FFF785FFF4E76B
:1018500001204042F1E701204042EEE79CBF021028
:1018600070B50B00150011891A00FFF719FD041E51
:1018700004D02900FFF7D8FE002801D1200070BD58
:1018800001480CF031FBC046B4BF021000B583B074
:101890006B469A1DFFF704FC002809D042896B466D
:1018A00006331B889A4206D94268D05C03B000BD5B
:1018B00001204042FAE701204042F7E710B5FFF768
:1018C000E5FF002801DA002010BDC0B2FCE710B52A
:1018D00082B014006B469A1DFFF73AFF002807D02C
:1018E00042896B4606331B889A4201D94268D45418
:1018F00002B010BD10B5027A002A07D0134B5C6805
:101900003C23E35C0133DBB29A4213D1002906D0B9
:10191000002811D00368002B10D000200BE0002815
:101920000ED00368002B0DD0084A526993420BD0A9
:10193000080000E0002010BD0120FCE70120FAE7CC
:101940000120F8E70120F6E70120F4E7803B0020C2
:10195000F0B5D6464F4680B583B00500244B1968D4
:10196000586908F018FA07006B685E7A214B1C680A
:1019700000239946019313E063699A46002B0DD02A
:101980006B6899461C4B2A002100A069D0470028AB
:101990001AD16B684B4528D1022399460194E4681B
:1019A000002C1CD0237C9E42F8D139002000FFF788
:1019B000A1FF0028F2D0637CDB07DDD50C4B1B694F
:1019C00062689A42EAD1D7E7019B002B05D0E26812
:1019D000DA60084B1A68E2601C60012399464846A9
:1019E00003B0C0BCBA46B146F0BD04480CF07CFA66
:1019F000803B0020C0D60020903B0020C8BF0210D2
:101A000010B5002814D00368002B11D000290FD086
:101A10000B68002B0CD0074B1B6800E0DB68002B29
:101A200006D01A680468A242F8D10A681A60F5E77D
:101A300010BDC046C0D60020704710B50520FFF786
:101A400005F9041E03D02C2200210DF06BFF2000AD
:101A500010BD10B5041E0AD00368002B03D05B6CC8
:101A6000002B00D0984721000520FFF701F910BD99
:101A7000002800D081607047002800D001617047C5
:101A8000002800D081617047002800D0C1617047F4
:101A900010B500280AD001622823C2540368002B25
:101AA00004D01B68002B01D01100984710BD0028FE
:101AB00000D04162704710B5002806D00368002BA3
:101AC00003D05B68002B00D0984710BD10B50028EC
:101AD00007D00368002B07D09B68002B07D09847DE
:101AE00010BD06204042FBE706204042F8E70620F2
:101AF0004042F5E710B5002807D00468002C07D055
:101B0000E468002C07D0A04710BD06204042FBE748
:101B100006204042F8E706204042F5E710B5031ED4
:101B200007D00068002804D00469002C02D01800F7
:101B3000A04710BD0020FCE710B5002806D00368C0
:101B4000002B03D05B69002B00D0984710BD10B567
:101B5000002807D00368002B07D09B69002B07D013
:101B6000984710BD06204042FBE706204042F8E7B8
:101B700006204042F5E710B5002807D00368002B87
:101B800007D0DB69002B07D0984710BD06204042E4
:101B9000FBE706204042F8E706204042F5E710B593
:101BA000002807D00468002C07D0246A002C07D036
:101BB000A04710BD06204042FBE706204042F8E760
:101BC00006204042F5E710B5002807D00368002B37
:101BD00007D05B6A002B07D0984710BD0620404213
:101BE000FBE706204042F8E706204042F5E710B543
:101BF000002807D00368002B06D09B6A002B05D075
:101C0000984700E0002010BD0020FCE70020FAE724
:101C100010B5002807D00368002B06D0DB6A002B24
:101C200005D0984700E0002010BD0020FCE7002010
:101C3000FAE710B5002807D00368002B06D01B6B0D
:101C4000002B05D0984700E0002010BD0020FCE7E5
:101C50000020FAE710B5002806D00368002B03D057
:101C60005B6B002B00D0984710BD10B5002806D044
:101C70000368002B03D09B6B002B00D0984710BD4E
:101C800010B5002807D00368002B06D0DB6B002BB3
:101C900005D0984700E0002010BD0020FCE70020A0
:101CA000FAE710B5002806D00368002B03D01B6CA0
:101CB000002B00D0984710BD10B5002807D004684D
:101CC000002C07D0A46C002C07D0A04710BD062024
:101CD0004042FBE706204042F8E706204042F5E795
:101CE00010B5031E07D00068002804D0C26C002A7B
:101CF00002D01800904710BD0020FCE710B5002866
:101D000007D00368002B06D01B6D002B05D0984729
:101D100000E0002010BD0020FCE70020FAE710B52D
:101D2000002806D00368002B03D05B6D002B00D089
:101D3000984710BD10B5002806D00468002C03D0C9
:101D4000A46D002C00D0A04710BD10B5002807D00E
:101D50000368002B06D0DB6D002B05D0984700E010
:101D6000002010BD0020FCE70020FAE710B5002895
:101D700005D04068002805D0FFF7A8FE10BD06205A
:101D80004042FBE706204042F8E710B5002811D09A
:101D9000002909D0002A07D00368002B04D09B69D2
:101DA000002B01D0984704E04068002805D0FFF7D9
:101DB000E2FE10BD06204042FBE706204042F8E765
:101DC00010B5002805D04068002805D0FFF7FBFEBD
:101DD00010BD06204042FBE706204042F8E710B560
:101DE000002807D04068002801D1002010BDFFF76F
:101DF0000FFFFBE70020F9E710B5002807D0406887
:101E0000002801D1002010BDFFF713FFFBE70020E1
:101E1000F9E710B5002804D04068002801D0FFF78A
:101E200019FF10BD10B5002804D04068002801D06B
:101E3000FFF71BFF10BD10B5002807D04068002831
:101E400001D1002010BDFFF71BFFFBE70020F9E7E1
:101E500010B5002804D04068002801D0FFF721FF0A
:101E600010BD10B5002805D04068002805D0FFF748
:101E700023FF10BD06204042FBE706204042F8E762
:101E800010B5002804D04068002801D0FFF728FFD3
:101E900010BD10B5002807D04068002801D10020EF
:101EA00010BDFFF72BFFFBE70020F9E710B5002876
:101EB00004D04068002801D0FFF731FF10BD10B5F5
:101EC000002804D04068002801D0FFF733FF10BD80
:101ED00010B5002807D04068002801D1002010BDAF
:101EE000FFF733FFFBE70020F9E770B505000800B6
:101EF00000F0F4FA041E0BD00100280010F032FEAE
:101F0000051E01D0280070BD2000FFF720FEF9E774
:101F10000500F7E710B50C000100200000F02EFDD1
:101F2000237D012B00D110BD0649200000F02AFDC1
:101F30000549200000F034FD0449200000F03EFD7A
:101F4000F1E7C04665220010C51F0010A71F001052
:101F500070B504000D00FFF7DDFFE560014B236065
:101F600070BDC04640C00210F8B504000F00160056
:101F700000280FD00369002B0FD0FFF75EFD051E70
:101F80000ED03900FFF7E4FF2369A0683200290072
:101F90009847F8BD10204042FBE710204042F8E788
:101FA00001204042F5E710B5041E09D00023C360AC
:101FB000436A002B01D0806898472000FFF749FD55
:101FC00010BD000010B5031E12D0C068884209D1B0
:101FD0005968002909D1DC69002C0BD098681900D8
:101FE000A04710BD04480BF07FFF04480BF07CFFB6
:101FF0000020F6E70020F4E714C0021024C002100D
:1020000010B500280AD0C3684268002A03D1002B0B
:1020100006D0187D10BD03480BF066FF0020F9E7DD
:102020000020F7E724C0021070B5002818D0C4685B
:10203000002C15D04068002813D1607A0825284369
:102040006072002900D1084994202150002A00D153
:10205000064A98216250002B00D109339C22A350DC
:1020600070BD03480BF040FF00DD6D00F824010057
:1020700024C0021010B5002809D0C368002B06D078
:102080004268002A04D15A7A08218A435A7210BD44
:1020900001480BF029FFC04624C0021010B50028EB
:1020A0000ED0C3684268002A05D1002B0AD000294F
:1020B00004D0D88A05E004480BF016FF188B00E026
:1020C000002010BD0020FCE724C0021010B5031E44
:1020D00008D0C0685B68002B05D1002802D0002919
:1020E00000D1043010BD01480BF0FEFE24C00210E8
:1020F00010B54368002B00D110BD01480BF0F4FE71
:1021000024C0021010B500280DD0C368002B0CD0DD
:102110004268002A04D15B8B9B090120184010BD46
:1021200003480BF0E1FE0020F9E70020F7E7C04686
:1021300024C0021010B5002809D0C368002B06D0B7
:102140004268002A04D15A8B40218A435A8310BD29
:1021500001480BF0C9FEC04624C0021010B500288B
:1021600009D0C368002B06D04268002A04D15A8BDC
:1021700040210A435A8310BD01480BF0B5FEC0460A
:1021800024C0021010B5002809D04368002B03D1E9
:10219000C2686623D05A10BD02480BF0A5FE00208D
:1021A000F9E7C04624C0021010B5002809D04368E2
:1021B000002B03D1C2686423D05A10BD02480BF033
:1021C00093FE0020F9E7C04624C0021010B5002895
:1021D00008D04368002B02D1C368588E10BD024856
:1021E0000BF082FE0020F9E724C0021010B5031E98
:1021F00012D0C068884209D15968002909D15C69A8
:10220000002C0BD098681900A04710BD04480BF0B3
:102210006BFE04480BF068FE0020F6E70020F4E7B0
:1022200014C0021024C0021010B5031E12D0C268E0
:102230008A4209D14268002A09D1026A002A0BD0D9
:1022400080681900904710BD04480BF04DFE04480B
:102250000BF04AFE0020F6E70020F4E714C002105D
:1022600024C0021070B5041E12D0C068884209D183
:102270006168002909D1A569002D09D0A068210055
:10228000A84770BD07480BF02FFE07480BF02CFE47
:10229000002A04D01000FEF7C5FF0020F1E700205F
:1022A000EFE7C04614C0021024C0021010B5041E8F
:1022B00009D0C0686468002C02D100F077FC10BD22
:1022C00002480BF011FE06204042F8E724C002103D
:1022D00010B5031E05D0C0685B68002B02D100F06A
:1022E0002BFB10BD01480BF0FFFDC04624C00210BF
:1022F00010B5002809D04368002B03D1C06803F053
:102300006DFF10BD02480BF0EFFD06204042F8E7DC
:1023100024C0021010B5002809D04468002C03D155
:10232000C06803F0A5FA10BD02480BF0DDFD0620E1
:102330004042F8E724C0021010B5002809D04368D5
:10234000002B03D1C06800F0E3FF10BD02480BF082
:10235000CBFD06204042F8E724C0021010B504006F
:10236000002100F00BFB237D012B00D110BD0021CB
:10237000200000F007FB0021200000F011FB0021ED
:10238000200000F01BFB627F0021200000F02CFBEE
:10239000ECE70000F8B5041E24D04368002B14D1EC
:1023A000C668002E0BD08C23F7583000FFF7D6FFFD
:1023B000300000F0F7FE051E0AD10023E360200084
:1023C000FFF747FB00252800F8BD08480BF08CFDFF
:1023D00031002000FFF79EFD727F3900300000F0D1
:1023E00003FBF0E706256D42EDE7C04624C002106E
:1023F00010B503000A00002806D0C0685B68002BF7
:1024000003D1034900F0F0FA10BD02480BF06CFD57
:102410002922001024C0021010B5031E07D0C06886
:102420005B68002B04D1002801D000F0E7FC10BD50
:1024300001480BF059FDC04624C0021010B5041E1F
:102440000CD04368002B0AD1C06800F09BF900282B
:1024500004D0E060034900F0BFFA200010BD02483C
:102460000BF042FD691F001024C0021010B50028B7
:102470000BD04468002C05D14361C068044B00F0C8
:10248000F7FA10BD03480BF02FFD06204042F8E795
:10249000ED21001024C0021010B5002809D04368B7
:1024A000002B03D1C06800F009F910BD02480BF001
:1024B0001BFD06204042F8E724C0021010B5031EA1
:1024C00005D0C0685B68002B02D100F0EFF910BDA9
:1024D00001480BF009FDC04624C0021070B500F0A1
:1024E000BDFD041E0CD0FFF7A8FA051E04D0210084
:1024F000FFF72EFD280070BD200000F053FEF9E725
:102500000500F7E710B5002409E0154B154A1A80BD
:102510000DE00134A4B28023DB019C421DD2104A9D
:10252000138801339BB213800F4A9342EDD00020F1
:1025300003280FD883000D4A9B581B68002B06D038
:10254000D98A074A12889142E3D0DB68F6E7013066
:10255000C0B2EDE7024B188810BD0020FCE7C04672
:102560005C0C002000C0FFFFFFFF0000BCC7021092
:1025700010B5002903D106480BF0B6FCC06800284E
:1025800005D0C36F8B42F9D10023C367F6E710BDB6
:10259000A0C0021070B5051E04D0037D012B04D12C
:1025A00001240DE008480BF09FFC08480BF09CFC50
:1025B000A200074BD35818682900FFF7D9FF013450
:1025C000032CF5D970BDC046C8C00210D4C002109B
:1025D000BCC7021010B50100037D012B03D00320FE
:1025E000FEF746FB10BD01480BF07EFCECC002106C
:1025F00070B5041E09D0037D042B19D0072B1ED003
:10260000032B05D00025280070BD12480BF06CFC90
:1026100003F06CFC051E01D105232375002D15D098
:102620006B1CF0D1638B0822134363830025EAE718
:1026300003F05CFC051EF1D105232375EEE703F0E2
:1026400055FC051EEAD109232375E7E7200003F0B6
:10265000C5FDD8E7C8C0021010B5084B186800E0E7
:102660002000002809D0C468438B1A07F8D5082237
:1026700093434383FFF7BCFFF2E710BD08D9002066
:1026800010B508F0A5F98004800C034B9C4660440B
:10269000024B188010BDC04600C0FFFF5C0C00203C
:1026A00010B50100037D012B03D00220FEF7E0FAF4
:1026B00010BD01480BF018FC08C1021070B50600EF
:1026C0000D1E0ED0002E0ED0337D002B11D1002A0E
:1026D00015D00020032816DC830025495B581B68B1
:1026E00021E0244DEEE724480DF07AFA1020404214
:1026F00017E022480DF074FA0620404211E0FFF77F
:1027000001FF021E25D0002D03D02B68002B00D026
:102710003360F2821A4B1A68F2601E6004F02AF8E5
:10272000002070BDDB68002B11D0DC8A9442F9D107
:10273000002B11D01968002911D0002D12D02C685F
:10274000002C12D0A142EDD108204042E9E701302F
:10275000C0E702204042E4E708204042E1E70820C9
:102760004042DEE708204042DBE708204042D8E74D
:10277000BCC702102CDF02101CC1021034C10210B1
:102780000CD9002070B504001600002829D0037D64
:10279000002B2DD1012B4BD00320FEF757FA051E3D
:1027A0004AD023690361E38AC38201230375637DF1
:1027B0004375637A4372237A0372E37AC372A37A0E
:1027C000837223680360E38A002B20D01C4B1B68B4
:1027D000A34214D0002B18D0D968A14213D00B000B
:1027E000F8E718480DF0FCF9250010235B421AE0C9
:1027F00015480DF0F5F90F235B42002513E0DA6868
:102800000F4B1A6001E0E268DA600023E360200009
:10281000FFF746FF0D4BAB610D4B1A68EA601D6078
:1028200003F0A8FF0023002E00D03370280070BDF5
:10283000050009235B42F6E701235B42F3E7C0464C
:102840000CD900205CC102108CC10210092E0010AE
:1028500014D90020F8B5002817D0456A068DA919AB
:10286000C26A448E231C8027BF01BC4200D93B1C96
:102870009BB2D318CB1A0BD5521B0CD480235B020E
:102880009A420BD242850020F8BD06480BF02CFB83
:102890004685881AF8E700234385F4E702480BF0E1
:1028A00023FBC046C4C10210E8C1021010B5041ECB
:1028B00016D0037D012B17D0038D591889B28022C1
:1028C000D201914201D88B4211D98023DB012385AB
:1028D0002000FFF7BFFF80235B01984209D210BDA3
:1028E00008480DF07DF9FAE707480BF0FDFA01857D
:1028F000EEE7638B022213436383200003F06EFC38
:10290000EDE7C04604C202101CC2021010B5041E3E
:1029100008D04068002801D0FEF784FC2100042084
:10292000FEF7A6F910BD10B503E00468FFF7EEFF4F
:1029300020000028F9D110BD10B5002801D0417544
:1029400010BD02480DF04CF9FAE7C04644C202102F
:1029500070B5051E0DD00420FEF778F9041E06D0D0
:10296000142229000CF0E4FF6068FEF781FD2000CE
:1029700070BD01480BF0B8FA60C20210002800D008
:102980000161704710B5002804D0037D012B02D0EF
:102990008423C15010BD01480BF0A6FA7CC202107E
:1029A00010B5002804D0037D012B02D08023C15034
:1029B00010BD01480BF098FAA4C2021010B500280F
:1029C00004D0037D012B02D09023C15010BD0148DB
:1029D0000BF08AFACCC20210002802D0037D012B32
:1029E00000D070478161FCE710B5002806D0037D58
:1029F000012B07D08C23C150427710BD03480DF046
:102A0000EFF8FAE702480BF06FFAC046F4C2021082
:102A10000CC3021010B5002807D0054B054A1068FA
:102A20001A6894466044186010BD03480BF05CFAC5
:102A3000580C002018D900202CC3021010B5002A11
:102A40000ED000290BD00B8E002B08D0282B0AD9D2
:102A5000283B9BB21A1C834200D9021C90B210BDC5
:102A600002480BF041FA0023F4E7C04648C30210C5
:102A7000F8B504001E00002856D000295AD0037D66
:102A8000002B5DD10B6843600283007A00285DD083
:102A9000FEF7E4FA0500002D00D172E0002C02D010
:102AA0002368002B04D12B1D00D16DE06B682360DF
:102AB000E78A002F04D1FFF725FDE082002866D0C9
:102AC0002000FFF7A7FF0200002161622065013AA4
:102AD0006264A265E2658023DB0163852385E16290
:102AE0006022A352862080006086221D2900FFF705
:102AF000A5FF608648230122E2524033E6500221BE
:102B0000200003F065F9051E39D102232375002F3B
:102B100029D0204B1B68A3421DD0002B21D0DA689E
:102B2000A2421CD01300F8E71B480DF059F81025FD
:102B30006D4224E019480DF053F810256D421EE057
:102B400017480DF04DF80A256D4218E0201D06F0DB
:102B50009BFE05009FE7DA680E4B1A6001E0E26811
:102B6000DA600023E3600F4B1A68E2601C6003F038
:102B700001FE0D4B01221A70200003F02FFB2800EC
:102B8000F8BD04256D42FAE704256D42F7E70225FA
:102B90006D42F4E70CD9002070C302108CC3021000
:102BA000A8C3021008D900206DD90020002814D035
:102BB000002909D0002A01D001681160002B01D042
:102BC000C28A1A8000207047002A01D04168116033
:102BD000002BF7D0028B1A80F4E706204042F2E780
:102BE00010B50400406F002803D0FFF79CFE0023BF
:102BF000636710BD10B5041E22D0037D002B1ED0CC
:102C00000A2B1CD0012B1AD0806F002803D0FEF7AE
:102C100009FB0023A367636F002B02D02000FFF79E
:102C2000DFFF01235B422386E06EFFF77CFE206F0F
:102C3000FFF779FE0023E36623676822A35210BDE5
:102C400001480CF0CDFFFAE7D8C3021010B50C1EF6
:102C50000BD000280CD003688B420CD0002B0FD077
:102C6000DA68A2420AD01300F8E71C480BF03CF9DE
:102C70001B480BF039F9DB68036001E0E268DA60B9
:102C80000023E3602000FFF7B5FF237D0A2B04D06B
:102C9000012B02D0638BDA070FD4237D012B08D0E0
:102CA000E36E002B10D1236F002B10D1636F002B2C
:102CB00010D100232375E38210BD022213436383E6
:102CC000200003F08BFAE8E706480BF00DF9064800
:102CD0000BF00AF905480BF007F9C046F4C30210DF
:102CE00010C4021030C4021048C4021064C40210A0
:102CF000F0B5D6464F464646C0B584B004000D0038
:102D000000281CD0037D012B1DD00A2B1ED0026D84
:102D10009046426A9146902286580769002B47D117
:102D2000C38A9A46002B4DD02E4B1B68834215D088
:102D3000002B19D0DA68A24214D01300F8E72A4811
:102D40000CF04EFF2EE029480BF0CEF80100284889
:102D5000FFF77CFF2000FFF7A3FC23E0DA68214B9C
:102D60001A6001E0E268DA600023E3609A46002519
:102D7000206F002801D0FFF7D6FDE06E002801D0BB
:102D8000FFF7D1FD606F002801D0FFF7CCFD002DCB
:102D90001AD12000FFF784FC002E03D00D214942F8
:102DA0003800B04704B0E0BCBA46B146A846F0BD12
:102DB000C38A9A4601000F48FFF748FF0E4B0122D5
:102DC0001A70D5E70025D3E7231D228B02925246C5
:102DD0000192009323004A464146200003F096F9F1
:102DE000D7E7C0460CD900207CC4021098C402105A
:102DF0001CD9002008D900206DD9002010B5012170
:102E0000FFF776FF10BD000010B5081E04D0FFF7D5
:102E1000F5FF0D20404210BD01480BF065F8C0469B
:102E2000CCC4021010B50B4B1B680021002000E041
:102E3000DB68002B08D0084A12681C6A121B8A4201
:102E4000F6D311001800F3E7002801D0FFF7D6FFF2
:102E500010BDC0461CD9002018D9002070B543B25F
:102E6000002B02DB002801D11FE07F200138C2B215
:102E70000E4B1B680024002006E00D4A14681A6AF5
:102E8000A41A0A001800DB68002B0AD0597D914271
:102E9000F3D3F8D1064D2D681E6AAD1BA542F2D3BF
:102EA000EBE7002801D0FFF7A9FF70BD08D900208B
:102EB00018D9002070B504000800002C06D108487D
:102EC0000BF012F8C568FFF799FF2800002805D01D
:102ED000036822689342F5D0C068F7E770BDC0462A
:102EE000ECC4021070B504000D00002802D0036885
:102EF000002B00D170BD0D4B1968FFF7DBFF0C4BA9
:102F000019682000FFF7D6FF002DF3D02B68002BA7
:102F1000F0D0084B1B6800E0DB68002BEAD01A6891
:102F200021688A42F8D12A681A60F5E708D900209A
:102F30000CD9002014D9002070B501000300083B13
:102F4000DBB2012B04D80E4B1B680024002003E0E9
:102F50000C480AF0C9FFDB68002B0BD01A7D8A42AF
:102F6000F9D1094A12681D6A521BA242F3D3140018
:102F70001800F0E7002802D00021FFF7B9FE70BD6D
:102F800008D9002020C5021018D9002070B505000E
:102F90000220FDF75BFE041E32D0002C2ED0A422AE
:102FA000002120000CF0BEFC6575264B6422A35264
:102FB0008022D20162852285FF22E2721A32FF321C
:102FC0006286062240216252E287073A228649320F
:102FD0003F39A1521C4A126822621C4A1278A27719
:102FE0004A22A35284231A4AE2501033194AE2506B
:102FF0000433194AE25004330922E250200070BD24
:10300000FFF72AFBFFF70EFF0220FDF71FFE041E4D
:10301000C3D10920FFF790FF0220FDF717FE041E21
:10302000BBD10820FFF788FF0220FDF70FFE041E2A
:10303000B3D12800FFF712FF0220FDF707FE0400BE
:10304000ABE7C046A02D000018D900206FD90020A2
:10305000D131001000DD6D00F824010010B54020D2
:10306000FFF794FF10BD000010B584B0041E13D00C
:10307000002904D0037D042B11D0072B0FD0237D12
:10308000012B00D167E0022B00D170E0002B47D06C
:103090002000FFF7ADFA3EE03B480AF025FFA36FA2
:1030A000002B1CD0638BDB061FD5231D228B0292C5
:1030B000E28A019200932300626A216D200003F0EE
:1030C00025F82000FFF796FD304B1B68A3420FD078
:1030D000002B13D0DA68A2420ED01300F8E7228D3D
:1030E0008023DB019A42DDD1C9E729480AF0FCFEC2
:1030F000DA68264B1A6001E0E268DA600023E360D8
:10310000244B01221A70244B1B68A34205D02000D7
:10311000FFF7C6FA002004B010BD02F0A7F8F9E7E7
:10312000E38A002B12D01D4B1B68A34206D0002B54
:103130000AD0DA68A24205D01300F8E7DA68174B24
:103140001A6001E0E268DA600023E3602000FFF724
:10315000A7FA0020DFE72000FFF71CFA2100104843
:10316000FFF774FD2000FFF735FA0020D3E72100B8
:103170000648FFF76BFD074B01221A702000FFF78E
:103180008FFA0020C7E7C04630C5021008D90020DA
:1031900050C502106DD9002010D900200CD9002094
:1031A00014D9002010B500280AD0037D012B03D0CC
:1031B000438B1022134343830121FFF755FF10BDBA
:1031C00002480CF00DFD10204042F8E76CC50210DB
:1031D00010B508001400002909D0002A0DD011896B
:1031E000FFF764FB2000FEF71DF8002010BD064825
:1031F0000CF0F6FC10204042F8E7002B01D0002034
:10320000F4E7FFF7CFFFF1E784C50210F8B5041E1D
:1032100026D0866F777B002383678433C558002DC3
:1032200024D00023320001000069A8470500002DCA
:1032300024D1BB0628D5238D8022D201934201D010
:10324000013323858423E658002E1DD020690023F6
:1032500000222100B04703000D3315D1050013E013
:103260000A480CF0BDFC10256D420DE00023320031
:1032700001000020FFF7ACFF0500D8E72B000D335D
:1032800002D0A66705256D422800F8BDA0C5021032
:1032900070B51C4A1378013313701B4B1C6813E084
:1032A000022213436383200002F098FF638B032202
:1032B0009343638313E00822934363832000FFF763
:1032C00097F90FE0E5682C00002C19D0A27F0D4B78
:1032D0001B789A42F6D0A377638BDA07E0D4638B2E
:1032E0001A07E8D4E568A36F002BECD0074E002343
:1032F00033702000FFF78AFF3378002BE3D0CCE750
:1033000070BDC0466FD9002008D900206DD90020BB
:1033100070B504000E00150000281BD0037D012BA2
:1033200029D000290CD0438B102213434383002D56
:1033300016D1806F002803D0FDF774FF0023A36728
:10334000002D1BD0237D042B0ED8032B0ED20B2077
:10335000404214E00C480CF043FC102040420EE0C8
:103360000121FFF781FE0AE0072B09D1F1B220000D
:10337000FFF77AFE03E00B20404200E0002070BD22
:103380000B204042FBE7C046C8C50210F0B5CE4650
:10339000474680B585B0BA4A136801331360B94A0D
:1033A000137801331370B84B1C68002686E1B748C8
:1033B0000AF09AFDB6480AF097FDB6480AF094FD67
:1033C0002600E4687AE14033E35C052B00D88BE10A
:1033D00001256FE0B0480AF087FDB0480AF084FD8F
:1033E000200002F0F9FB00280CD0A0230022E254B8
:1033F0000133E35C062B00D9A3E00133A132A354CF
:10340000002557E0200002F0E9FE0028EDD100255C
:1034100050E0238EA24A934201D801332386302301
:10342000E25E4023E35E9A4244DB200002F092FD1C
:10343000002805D0236F002B3CD1E36E002B39D040
:10344000237D022B15D04223E25C131C0C2A00D9E9
:103450000C23DAB23C21635EDB103E20215E5B1858
:1034600090498A5C93408E4A934220DC1BB24022F2
:10347000A352002323866033E25A183BE15A131CFF
:103480008A4200D90B1C9BB25B084A22A352618E70
:103490004A0092B2934201D24A23E2524823E152B7
:1034A00022330022E252200003F034F802E07E4B87
:1034B000DDE70125217D062945D0637A0822170022
:1034C0001F401A4204D0042949D0072947D00027B9
:1034D000636F002B0AD06A4B1A68236AD21A402302
:1034E000E15E4B005B185B009A426AD2237D032B9E
:1034F0006BD0092B72D0002D79D1E568237F013381
:10350000DBB22377627F934200D2D5E0002323779A
:10351000664A13708C33E358002B00D1A7E02100DA
:1035200020699847614B1B78002B00D03BE70028AF
:1035300000D19EE026002C00C0E00125BAE700255E
:10354000B8E70025B6E7638BDB06B6D54C4B1B68A6
:10355000226A9B1A282BB0D90135EDB2ADE7484B52
:103560001F68236AFF1A9423E35898469C23E05867
:10357000043BE358994658434044FA2149000BF074
:10358000A7FD874203D90135EDB20127A0E7A323A8
:10359000E05C4B4658434044FA2149000BF098FD4B
:1035A000874201D8002793E7200002F0D7FF0028C8
:1035B00005D1A322A35C0133A354002788E7002789
:1035C00086E72000FFF70CFB90E72D4A1268216A7E
:1035D000521A282A8DD90135EDB28AE7284B1B688B
:1035E000226A9B1AF02B86D90135EDB283E790232E
:1035F000E5582000FFF7FEFA002E20D0224B1B6872
:103600009C4219D0E368F360002F23D123699846C8
:10361000E7682000FFF744F8244B00221A70002DC1
:1036200003D00D2149424046A847204B1B78002B70
:1036300000D0B8E63C0041E01D480AF055FC124BB2
:103640001B689C4203D1104BE2681A60DCE7194802
:103650000AF04AFC231D626A216D208B0290E08AE9
:10366000019000932300200002F050FDCEE70020DF
:1036700058E7200002F0B2FD26002C001EE0C046F4
:1036800018D900206FD9002008D90020E4C5021005
:1036900010C602103CC6021068C602109CC602107A
:1036A000FE7F0000ACC70210FF7F00006DD9002034
:1036B000D4C6021000C7021026002C00002C46D0F1
:1036C000237D002B00D172E6012B00D172E60A2B7C
:1036D00000D172E6A17F394A1278914200D16FE69B
:1036E000A277022B00D16EE64223E35C0B2B00D9BC
:1036F000DFE6A123E55C002D00D18AE6236F002BD5
:1037000000D067E6E36E002B00D166E6A223E35CFF
:103710000B2B00D911E7013D294B5A5DA023E35C37
:10372000934202D20133A0216354A023E35C93426D
:1037300000D204E76023E15A002900D050E62000BF
:1037400002F030FF002800D14FE60025B2E61D4B05
:103750001D6812E01C480AF0C7FB2800FFF74AFA70
:10376000002C1BD0174B1B689D4214D0EB68E36004
:10377000EE682800FEF794FF3500002D19D02B7D50
:103780000A2BE7D1114B1B682A6A9B1AF02BE4D84D
:103790002C00ED68F1E70E480AF0A6FB094B1B6808
:1037A0009D4203D1074BEA681A60E1E709480AF035
:1037B0009BFB05B0C0BCB946B046F0BD6FD9002038
:1037C000CCC702101CD900202CC7021018D9002029
:1037D0005CC7021084C7021010B5FFF759FD054AF7
:1037E00013780133DBB21370DB0700D410BDFFF791
:1037F000CDFDFBE76ED900200B4A1388591C1180C0
:103800000A4A1168002903D0094A1288934204D257
:10381000084A1268D318187D7047DBB2D2B29B1ADF
:10382000DBB2C85CF8E7C04652D9002024D900209A
:1038300054D9002020D9002070B5041E1FD0204B81
:103840001B88002B3AD01F4B00221A801D4B1A8870
:103850001B4B1B889A4231D2FFF7CEFF0128F5D0CF
:1038600002280FD0002829D0FFF7C6FF0300012847
:1038700024D9144A1088C01802381080E6E712488C
:103880000AF032FBFFF7B8FF042817D10D4B1B8855
:1038900001330B4A1288934210DAFFF7ADFF85B26D
:1038A0002D02ADB2FFF7A8FF80B205436B1E9BB29D
:1038B000064A934200D9064D6586C7E770BDC046EB
:1038C00056D9002052D90020D4C70210B3050000F9
:1038D000B405000010B5041E05D00E4B1B78DB06A6
:1038E00004D4002010BD0C480AF0FEFA438BDB061E
:1038F00007D49023C358002B03D00F2149420069FD
:10390000984721000548FFF7A1F92000FEF7C8FEFF
:103910000120E7E76BD90020F0C7021008D900208A
:1039200070B584B01E4B1B785A072FD4002821D0C5
:103930009A0722D51B4B1A68436AD11A22D4018DEB
:103940005B189B1A1ED4184B1D68184B1849098820
:103950008A18184909682E786C7824023443029436
:10396000AE78EC782402344301941C1F009402F0DA
:10397000CDFB0BE010480AF0B7FADB0702D50F4B7E
:103980001B6803620A4B1B88002B01D104B070BD79
:10399000438B02221343438302F020FCF6E7C04628
:1039A00064D90020D4D7002020D90020943B0020E7
:1039B00058D900203826002018C8021018D9002035
:1039C000F0B585B004004A4B1B785A0705D400288F
:1039D00005D0DA0606D49B0720D405B0F0BD4548D3
:1039E0000AF082FA444B1E68444B454A1188454A06
:1039F00012688A18444909681D00143D68683778C0
:103A0000747824023C430294B778F47824023C434F
:103A100001941035009502F092FBDEE7407DFFF740
:103A2000B5FA051E50D0394B5A6902601B694360D4
:103A3000E38AC382304E3268117853781B020B43FD
:103A40000383032303752F4F3B6801334362C36233
:103A5000FEF7E0FFA86528656864E8653B68013B00
:103A60006B6523692B61EC67627A0C2313406B72E0
:103A7000237A2B72264B1A68EA601D6002F07AFEE8
:103A8000244B01221A702800FFF7D6FE3268917B82
:103A9000D37B1B020B436022AB520232AB526E8EC1
:103AA0002C1D200005F0F0FE010022003000FEF782
:103AB000C5FF68861221280002F08AF9002812D179
:103AC000280002F08BFB88E7134984228B5A0133CC
:103AD0008B52A369002B00D17FE7833A20695242C1
:103AE0000021984779E700212800FFF701F974E7E2
:103AF00064D9002038C8021020D90020943B00204F
:103B000058D90020D4D7002038260020803B002040
:103B100008D900206DD900209C3B0020F8B5CE4686
:103B2000474680B507000C0099460BE027480AF08D
:103B3000DBF94B46002B01D02C0003E024480AF0AF
:103B4000D3F92C00002C3BD0224B1E682169087948
:103B50004B791B0203438A7912041343C879000688
:103B60001843FCF7E2FC05002389984623691A7B79
:103B7000587B00021043FCF7D3FC83071ED00120C2
:103B800040442D18761B1BD425686068FDF766FC41
:103B90006623FB5A9842C9D81B1A6626BB53238951
:103BA0000D4A11885B1813802000FEF7AFFEBB5B47
:103BB000002BC6D0002DBCD02C00C3E70020DFE7CF
:103BC0002000C0BCB946B046F8BDC04658C8021077
:103BD00080C802103826002050D9002070B5060099
:103BE0000D0000280DD003691A7B587B000210439A
:103BF000FCF796FCC3070CD52800FEF794FE0025C1
:103C000048E029480AF070F92C682800FEF77EFE8B
:103C10002500002D2BD03189244B1B68C9182C6935
:103C20002379607900021843A27912041043E379E2
:103C30001B0603432A899B18CB1A18D4237B607B6D
:103C400000021843FCF76CFCC307DDD533691C7B0D
:103C50005B7B1B021C430120FCF762FC32692043A2
:103C600083B2FF21084010731B0A5373CCE7002D69
:103C700010D0286903794179090219438279120425
:103C80001143C3791B060B4332890849096852184E
:103C90009A1A01D4356070BD591A89B231817068A1
:103CA000FDF79CFBF6E7C046A0C80210D4D7002061
:103CB000F0B583B0041E65D0037D032B65D9B04BEE
:103CC0001B78DB0600D434E16023C05AA36DC5180D
:103CD000616DAC4A12688E1A0DD4914258D0AA492F
:103CE00009688B4219D1A94B19688E7BCB7B1B02CB
:103CF0003343984211D2A54B1968887BCB7B1B02BA
:103D00000343602163520231615A8B4201D962211F
:103D1000635262659C4B1B68A365626C9A4B1B687F
:103D2000D11A3FD49A490988002900D0F9E06031BE
:103D3000615AA06D84466144A94200D0F1E0302070
:103D4000215E002900DAECE09A4200D0E9E043234A
:103D5000E35CFF2B02D001334322A3544323E35CF3
:103D6000032B08D94822A15A628E8A1892B2914236
:103D700013D848216252022B00D8D2E0200002F072
:103D800091F9CEE083480AF0AFF883480AF0ACF826
:103D90007D490968591AA2D5ADE748220121494257
:103DA000A152E8E7991A012900D5B7E0216DC91A97
:103DB00000D5B3E0618B480709D5042081436183B6
:103DC0004A21605A02396052223100206052002597
:103DD000422165543C21605EE18FC01009184020EB
:103DE000215299B292B28A1A92B243216554636405
:103DF0004823E05A0233E35A98424FD2638B1B05A3
:103E000045D54239638E594389B20B1C914200D982
:103E1000131C9BB2C3189BB298423AD84822A352B3
:103E2000E36E5E4A216F2000FFF778FE03002067F3
:103E30005B4AE16E2000FFF771FEE066216F00290A
:103E40004DD0002323860023237700284BD0642203
:103E5000A35A544D2D885B19A352638B1B0560D563
:103E6000002944D0096908794A79120202438B7902
:103E70001B041A43C87900061043FCF756FBE36C99
:103E8000C01A4ED4638B484A1340638349E0022131
:103E9000B8E7482301225242E252C1E76A23E35ABB
:103EA0009A1892B2934210D86A23E2526A23E35AD4
:103EB0009842B5D81B1A6A22A352638EC3189BB2CC
:103EC000984207D8223AA352AAE76A230122524213
:103ED000E252EBE7482301225242E252A0E70123DB
:103EE0005B422386AFE768330022E252AFE7002847
:103EF0000FD0016908794A79120202438B791B04B9
:103F00001A43C87900061043FCF70FFBE36CC01A94
:103F100007D4638B244A1340638302E0200002F03D
:103F20002BF9636B002B04D0174A1268A16B8A1A15
:103F300040D4174B1B88002B00D197E3227D062A23
:103F400000D993E3606A0F4A1268811A012900D5EB
:103F500077E09B181B1A012B73D4144B5868002868
:103F60004ED0134B99424ED889B203898B424DD320
:103F70000E4A13895B1A13810289521A92B24EE0DB
:103F800064D90020D4D700203826002020D9002072
:103F900058D90020C8C80210E4C8021000C9021095
:103FA00008C9021050D90020FFF7FFFF6C3B00202A
:103FB000FEFF0000B74A17889BB2F81A80B23C2275
:103FC000A65EF510ADB2401B81B202B2B6B289193D
:103FD00009B2A18700040FD43E23E05E8310D31AF8
:103FE0009BB280B21B189AB2E387C91051184023C4
:103FF000E152002363639CE7DA1BAA1812B2EBE7D5
:10400000A54809F071FFA54809F06EFFA44809F022
:104010006BFFC91A89B2028100234381006843897A
:104020008B42F6D3FDF7C6F8636A9E4A13609E4A38
:1040300012691371190A5171190C91711B0ED37108
:1040400001E0121A13D4974B1F68626ABB1A00D59D
:1040500008E3238DD318DB1B012B00D502E3974225
:104060000AD0656F002D00D1E8E1002609E2638BDC
:10407000022213436383E6E78B4B1D891B691A7B7E
:10408000587B00021043FCF74BFA830716D001233C
:10409000ED18ADB2854A1580228D954210D8636F18
:1040A000002B69D0804B1B691A7B587B00021043A0
:1040B000FCF736FAC3075CD4656F90E00023E7E7AE
:1040C000794B1B691A7B587B00021043FCF728FAD6
:1040D000C3072FD4228D744B1A811B691A7B587B1E
:1040E00000021043FCF71CFA830703D56E4A1389BC
:1040F000013B13816C4D29896868FDF76FF92E89A2
:104100002B691A7B587B00021043FCF709FA8307DE
:1041100029D001239B199BB2644A1380614A12681B
:104120009B18228D616A8C4662449342B7D06048E6
:1041300009F0DAFE5C4E33691A7B587B00021043AB
:1041400005B25C4B1D40FCF7EBF93E231840FCF731
:10415000E7F903B231692B439AB2FF2003400B7396
:10416000120A4A73B6E70023D4E703686367FEF7D1
:10417000CDFB606F0028F8D14C4B1A88494B1B6867
:10418000D3186362238D9A4200D9D2E09B1A23850B
:104190002000FEF75FFB444B5B681A89002A04D0BD
:1041A000454A1360404B00225A603F4B1B691A7B03
:1041B000587B00021043FCF7B3F9C30700D4DEE0DC
:1041C0003E4A137820210B431370D8E000239B193B
:1041D000364A13802E682800FEF798FB3500002D24
:1041E00042D0324B18882F4B1B68C01829690B79B5
:1041F0004E7936021E438A7912041643CB791B0688
:1042000033432A899B18C31A2ED40B7B487B0002A8
:104210001843FCF785F9C307DCD5234B1B691A7BD0
:10422000587B00021043FCF77BF98307D2D41E4F62
:104230003B691E7B587B000206430120FCF770F9A6
:104240003A69304383B2FF21084010731B0A53734D
:104250003E893B691A7B587B00021043FCF760F9EA
:104260008307B3D00123B2E7002D11D029690B7960
:104270004A7912021A438B791B041A43CB791B0625
:104280001343084A1168094A128852189A1A17D417
:10429000656771E718D9002010C9021020C9021003
:1042A00030C90210D4D700206C3B002058D9002020
:1042B00040C90210FFC0FFFFC8D600206BD9002004
:1042C0005B1A9E4A138113691A7B587B00021043C4
:1042D000FCF726F9830703D5984A1389013B13811C
:1042E000964E31897068FDF779F8378933691A7B02
:1042F000587B00021043FCF713F9830717D0012302
:10430000DB199BB28E4A13808E4A12689B1828696B
:104310000279417909021143827912041143C27969
:1043200012060A439342B3D0874809F0DDFD00230B
:10433000E6E7864809F0D8FD00233DE000234CE085
:10434000834809F0D1FD002355E0824B196000231A
:104350006B602B691A7B587B00021043FCF7E0F876
:10436000C30707D57C4A137820210B431370237DA4
:10437000042B52D02B6863672800FEF7C7FA656FDD
:10438000002D4DD029690B794879000218438A79AC
:1043900012041043CB791B060343626A93423FD158
:1043A000684A13602E890B7B487B00021843FCF798
:1043B000B7F88307C0D001239B19626A944663440F
:1043C0006362268D2F892B691A7B587B000210436C
:1043D000FCF7A6F88307B1D00123DB199E42AFD3C7
:1043E0002E892B691A7B587B00021043FCF798F842
:1043F0008307A8D001239E19238D9B1B23852000B2
:10440000FEF728FA69680B89002BA2D0514B186877
:1044100000289AD0FDF740F899E703332375A9E700
:10442000638BDA0706D50122934363830222134389
:10443000638329E101221343638325E13F48FEF7AB
:1044400087FA606704E03D4B1A892B899A4203D8AA
:10445000200001F091FE17E13848FEF779FA0028B4
:10446000F6D0002E04D030602900FFF7B7FBEFE74D
:104470006067F9E7FA1A4BD42A682E00002A58D050
:104480001500002DE4D02869017942791202114308
:1044900083791B040B43C279120613439F42D2D087
:1044A000002EE7D031690A79944601914A791202C7
:1044B000614611438C4601998A7912046146114381
:1044C0008C460199CA79120661460A43BA1A012A32
:1044D000D2D4DA1B012ACFD41848FEF739FA071EC6
:1044E000B6D0184B196830690379427912021A4321
:1044F00083791B041A43C3791B06134332899A1824
:104500008A1A0FD4376029003800FFF767FB9FE74E
:104510000A48FEF71DFA00289AD060672900FFF7C5
:104520005DFB95E7C91A89B231817068FCF756FFC7
:10453000E8E7DB1B12D41500A3E7C0466C3B002064
:1045400058D90020D4D7002078C90210B4C902106D
:10455000D4C90210C8D600206BD90020037B407B51
:1045600000021843FBF7DCFFC30700D570E747489C
:10457000FEF7EEF92860002800D169E7444B19687E
:1045800028690379427912021A4383791B041A437A
:10459000C3791B0613432A899A188A1A41D4238D9A
:1045A000626A944663443B4A128839490968521842
:1045B0009B1A00D44CE72B681B691A7B587B0002BE
:1045C0001043FBF7ADFFC30732D4238D626A9446D4
:1045D00063449BB22E4A12689B1A2A6813812B6887
:1045E00019895868FCF7FAFE2B681D891B691A7B2C
:1045F000587B00021043FBF793FF830730D0012361
:104600005B199BB2234A1380214A12689B18228DA2
:10461000616A8C466244934200D119E71E4809F052
:1046200063FCC91A89B229816868FCF7D7FEB6E72E
:104630002B681B691A7B587B0002104306B2174B8C
:104640001E40FBF76DFF3E231840FBF769FF03B2E6
:104650002A68116933439AB20B73120A4A73B4E79A
:104660000023CDE7200001F087FD0DE0084B1A681C
:10467000636AD11A04D4218D5B189B1A012B03D5D0
:10468000638B02221343638303B0F0BD6C3B0020B5
:10469000D4D7002058D9002040C90210FFC0FFFF26
:1046A000F0B585B0041E16D0B34B1B785A072FD532
:1046B000027D022A12D0436AB04909688B4216D0A3
:1046C000CA1A10D4028D9B185B1A0CD4438B022299
:1046D0001343438307E0AA4809F006FCA94B1B6873
:1046E000016D994203D00025280005B0F0BD002AD5
:1046F0000BD0A54A137808210B431370638B01225A
:10470000934363830E256D42EEE7A04809F0ECFB6E
:104710009B0704D5037D023BDBB2012B22D8638BC0
:10472000DB0602D49A4B1B6823620023A322A35406
:10473000013AA3542000FFF77FF88F4B1A78022329
:1047400018001040134205D0237D023BDBB2012B41
:1047500000D930E2237D092B00D92EE29B008D4940
:10476000CB589F46438B0222134343830025BBE76C
:1047700012231340122B03D0D30673D40025B3E7C2
:10478000636C01337F4909688B42F5D17B4B1A6812
:10479000531C6362E36261647F4B1968887BCB7B47
:1047A0001B0203436021635202316352013A626586
:1047B00004232375668E251D280005F065F8010089
:1047C0002A003000FEF73AF96086810043001A00A3
:1047D000724DAB4200D22A0091422CD2800080B2AE
:1047E0004823E0521E33E35A002B2CD0013B6622B3
:1047F000A352206F002829D003682367FEF786F8AC
:10480000236F002B2BD00023238600224233E25457
:104810008823E358002B08D0002221002069984704
:10482000050003000D3300D15EE7638B02221343C2
:104830006383002558E7594A934202D9400080B269
:10484000CEE75648CCE7564809F04EFBE06E00280C
:1048500002D00368E366D1E7524809F045FB013B0B
:104860002386D5E74C4B1E684F4B504A1188434A6C
:1048700012688A184349096837787078000238430B
:104880000290B778F078000238430190181F00902A
:10489000200001F03BFC4223E35C052B01D90025FD
:1048A00022E700232386200001F046FE00251BE7B7
:1048B00000280CD0636A013B304A1268934201D051
:1048C000002511E7200001F09BFB00250CE7D30633
:1048D00000D474E12B4B1968636CCB1A012B6BD499
:1048E000236D5B1A68D404232375E36F002B2FD04C
:1048F0009B69002B29D00022210020699847051EC2
:1049000028D12000FFF7D4F9294B1B88002B02D0B7
:10491000013B274A1380638E98005A0011001F4EF6
:10492000B24200D2310088421DD29B009BB2482285
:10493000A352154B1B789B0600D4D5E6638B02224D
:104940001343638307232375CEE61A4809F0CCFA94
:1049500006256D420D3502D10D256D42C4E62000BD
:10496000FEF74CFAF8E70D498A4202D95B009BB288
:10497000DDE70A4BDBE7C04664D90020D4D700202E
:10498000F8C90210382600206BD9002014CA021082
:1049900018D9002080CA021020D900201C11000064
:1049A00034CA02104CCA0210943B002058D900208F
:1049B00050D9002060CA0210864B1D68864B874A7A
:1049C0001088874A126882182E786878000230436F
:1049D0000290AE78E878000230430190181F0090F2
:1049E000200001F093FB00257EE62000FFF760F930
:1049F0007C4B1B789B0600D4E3E0638B02221343BD
:104A000063830723237500256EE62000FFF750F926
:104A1000744B1B789B0639D5734B1B78DB0604D58A
:104A2000724B1B68226D9A4207D0638B022213439C
:104A3000638308232375002556E6E36E002BF4D12B
:104A4000628B0233134363832000FEF7D3F8684B75
:104A50001B689C4206D0002B0AD0DA68944205D02D
:104A60001300F8E7DA68624B1A6001E0E268DA6086
:104A70000025E5605F4B01221A700A2323755E4B07
:104A80001A68E2601C6001F075FE2DE6564B1B783B
:104A9000DB0600D497E0554B1B68226D9A4201D08B
:104AA000002521E6E36E002B01D000251CE606332D
:104AB0002375002518E62000FFF7FAF8494B1B780C
:104AC0009B0601D400250FE6638B02221343638308
:104AD0002000FEF78FF8464B1B689C4206D0002B47
:104AE0000AD0DA68944205D01300F8E7DA68404B40
:104AF0001A6001E0E268DA600023E3603D4B0122C6
:104B00001A700A2323753C4B1A68E2601C6001F09E
:104B100031FE0025E8E52000FFF7CAF8324B1B788C
:104B2000DB0652D5314B1B68226D9A4201D000251D
:104B3000DAE5E36E002B01D00025D5E52000FEF775
:104B400059F82B4B1B689C4206D0002B0AD0DA6820
:104B5000944205D01300F8E7DA68254B1A6001E0AB
:104B6000E268DA600023E360224B01221A700A2314
:104B70002375214B1A68E2601C6001F0FBFD0025E3
:104B8000B2E52000FFF794F8174B1B78DB061ED523
:104B9000164B1B68226D9A4201D00025A4E5E36EF6
:104BA000002B01D000259FE50E4A137810210B43FE
:104BB0001370002598E5002596E5002594E500256D
:104BC00092E5002590E500258EE500258CE5002581
:104BD0008AE5C04620D90020943B002058D9002007
:104BE000D4D700206BD9002064D9002038260020BB
:104BF00008D900206DD900201CD90020F0B5C64688
:104C000000B586B0051E1AD09B497A228B5A013313
:104C10008B529A4B42681A604389132B12D8822216
:104C20008B5A01338B5294497E228B5A01338B521B
:104C30002800FCF7F7FA06B080BCB846F0BD9048F3
:104C400009F052F98F4B1968586905F0A4F800284B
:104C500015D18C4B5A69F0231340E02B0FD08A4BAF
:104C60002A89191D009106212800FBF733FF00282F
:104C70000BD0814980228B5A01338B52D3E77E4976
:104C800088228B5A01338B52CDE77C4B1B681A7BF1
:104C9000587B00021043FBF743FC010BC9B28900AB
:104CA000C9B213292BD98BB22A89934227D81A006B
:104CB000143A92B2754802807548002404606889ED
:104CC000834222D92B68002B00D18AE014212800CE
:104CD000FCF770FA6C896F4B1C806C4B1F883E1B75
:104CE000B6B221002800FCF765FA28684389B34270
:104CF0007AD2614982228B5A01338B5293E75E4903
:104D000082228B5A01338B528DE7624B1A80280026
:104D1000FCF750FA594E3468237860780002184343
:104D2000FBF7FEFB2070000A60703468A378E0781F
:104D300000021843FBF7F4FBA070000AE07034682F
:104D40002079627912020243A3791B041A43E079A5
:104D500000061043FBF7E9FB2071030A6371030CA3
:104D6000A371030EE3714C4B18603468207A627AA9
:104D700012020243A37A1B041A43E07A000610438E
:104D8000FBF7D3FB2072030A6372030CA372030EBA
:104D9000E372424B18603468A37BE07B0002184347
:104DA000FBF7BEFBA073000AE07333681A7B587BE5
:104DB00000021043FBF7B4FB3F231840384B187038
:104DC0002B89384A1380820705D05A1C92B2354984
:104DD0000A80934221D8344B1B689C461C00002259
:104DE00035E0324809F080F8294B42681A603100FA
:104DF000FCF7E0F92B89E41B1C19A4B22C816B8908
:104E0000002B07D12B681B899C4200D182E72848E0
:104E100009F06AF8274809F067F8174982228B5A87
:104E200001338B52FFE6244809F05EF8234809F06D
:104E30005BF8234809F058F8278B104B19680E7857
:104E40004B781B0233439F423CD02200E468002C85
:104E500056D0237D002BE6D00A2BE7D0012BE8D0DB
:104E6000217A0029E8D0074B5F683C23FB5C0133C3
:104E7000DBB29942E0D0E8E79C3B002020D900203B
:104E8000A8CA0210803B0020903B002056D9002089
:104E900024D9002054D90020D4D70020382600205F
:104EA00064D9002058D9002008D90020C0CA0210B7
:104EB000DCCA0210D0CA0210FCCA021024CB0210B5
:104EC00050CB0210E78A8E78CB781B0233439F4287
:104ED000BBD1BB4B1B6961689942B6D1B84B5B69CA
:104EE00021689942B1D1E3689C4251D0002A52D046
:104EF000D3606346E360B34B1C60E3689C4250D0D0
:104F0000002C51D0002C00D14CE1AF4A002313609B
:104F1000298911815560AD4909681161AC4A136056
:104F2000AC4A1370AC4A1380030703D56B7B012294
:104F300013436B73A36F002B0DD02000FEF766F9AF
:104F40000D3000D1A9E0A36F002B04D0A34B1B8828
:104F5000002B00D0A1E0A24B1C602000FFF7A0FBBB
:104F60000D3000D1A1E09B4B1B781B0700D4B0E0B3
:104F70009023E358002B03D00E2149422069984723
:104F800021009048FDF762FE2000FDF789FB8CE0D0
:104F9000944808F0A9FF94498E228B5A01338B5212
:104FA000ABE7924808F0A0FF914B1C680CE09148D9
:104FB00008F09AFF218B854B1A68167853781B02EC
:104FC0003343994211D0E468002C26D0237D0A2B6C
:104FD000EDD1227A002AEDD0794B59683C23CB5C85
:104FE0000133DBB29A42E5D0EDE7E18A9678D378D7
:104FF0001B0233439942E6D1714B1B6962689A42A6
:10500000E1D16F4B5B6922689A42DCD12000FEF748
:1050100087FC2800FCF706F90DE6774B1B689C46D9
:1050200005940AE0DF8A694A1668B178F2781202BC
:105030000A4397420FD00593DB68002B14D01E7AE9
:10504000002EEFD05E4A51683C228A5C0132D2B217
:105050009642E7D0EFE71A68594E7669B24203D01C
:10506000002B01D0002AE6D1002B00D14AE7059A97
:10507000002A0CD0D968D1606246DA605E4A1360BB
:105080001800FEF79DFC2800FCF7CCF8D3E5564845
:105090008E21425A01324252F2E7638D002B14D026
:1050A00051497E228B5A01338B5200234C4A1360A4
:1050B000474A1360444B5868002800D1BBE5FCF711
:1050C000B1F8414B00225A60B5E5200001F054F8D8
:1050D000E6E7414B1A88002A0BD08023E358002BC7
:1050E00004D02100206998470D30DED03A4B0022D1
:1050F0001A802000FEF7EEFB0028D6D1344B1A6848
:10510000002A15D0A36F002B29D1638BDB0629D48D
:105110008423E558002D2CD0002321002069A847C6
:1051200003000D33C1D0002802D0294B1B68A367B0
:10513000284B1B789B0606D5A36F002B1FD0597BED
:1051400020220A435A73264B00221A602000FEF7E1
:10515000C1FB0028A9D1200001F040F8A5E72748AD
:1051600008F0C2FE1000FCF75DF82000FDF746FED7
:105170009BE7002321001800FEF72AF8D0E7238DD3
:105180008022D201934201D0013323858423E55844
:10519000002DD8D000231A0021002069A8470D3027
:1051A000D1D182E7094B1B681A7B587B0002104360
:1051B000FBF7B6F9430723D52800FCF733F83AE5A7
:1051C000803B002008D900206C3B002020D9002023
:1051D000C8D600206BD9002050D9002058D9002013
:1051E00010D9002078CB02109C3B0020A4CB0210E9
:1051F0001CD90020D0CB021014D9002000CC021002
:10520000144B88215A5A01325A520A395A5A0132D9
:105210005A52114B1F68114B9846114A1188114A76
:1052200012688A18104909681E00143E70683C789C
:10523000A4467C78240263461C430294BB78FC7825
:1052400024021C43019410360096434600F077FF79
:10525000B2E7C0469C3B002020D90020943B0020B0
:1052600058D90020D4D7002038260020024A1378CD
:1052700010210B43137070476BD9002010B5002824
:1052800019D0037D042B05D0072B03D0022B01D0AE
:10529000032B39D100293AD06423C35A8B420DD352
:1052A0006623C35A1F2B10D8002B22D0036F002B6C
:1052B00017D000202CE0174808F016FE438B802200
:1052C000134343830120404222E0134984228B5A36
:1052D00001338B52438B802213434383012040428E
:1052E00016E0C36E002B01D0002011E00B4808F03F
:1052F000FBFD036F002B04D1C36E002B01D10020F6
:1053000006E0074808F0F0FD0B20404200E00020D6
:1053100010BDC0461CCC02109C3B00203CCC0210AF
:1053200078CC021010B5002805D043689B7B012B78
:1053300004D1002010BD024808F0D6FD0120F9E795
:10534000ACCC021010B500290AD04968080014300E
:10535000920004231A4014328A18824203D110BDED
:10536000024808F0C1FD024808F0BEFDD4CC02108E
:10537000FCCC021070B50C0011001D1E11D0049B56
:10538000002B11D0A0229200FBF78AFF002807D043
:105390000368002B0BD143891B1B2B8004814481A4
:1053A00070BD044808F0A0FD034808F09DFD0348C7
:1053B00008F09AFD10CD021034CD021054CD021029
:1053C000F0B5D6464F464646C0B506000F0090469B
:1053D000994608AB1B789A4600284BD000294CD040
:1053E0009D0004200540FBF731FC041E48D05346C5
:1053F00003730023036047603B89AAB2934243D3FF
:105400009B1A03810023438114213800FBF7CCFE53
:1054100000283CD163685F682761F08AFBF780F859
:105420003870000A78702769308BFBF779F8B8700C
:10543000000AF87027694846FBF777F83871030AC5
:105440007B71030CBB71000EF871A80805300003D6
:10545000256943461843FBF763F82873000A68730D
:10546000236900229A74DA742000E0BCBA46B1467F
:10547000A846F0BD0B4808F037FD0B4808F034FD96
:105480003800FBF7CFFEEFE7084808F02DFD08498C
:105490008C228B5A01338B522000FDF737FA0024FF
:1054A000E2E7C04668CD021088CD0210ACCD0210F4
:1054B0009C3B0020F0B5DE4657464E464546E0B5DB
:1054C00083B001900D001E000CAB1B889B460DABFA
:1054D0001B889A460EAB1B7899460FAB1B889846E3
:1054E0008A1891B2A022143189B292002220FBF7CF
:1054F000D7FE071E38D042892B00133393423BDA84
:1055000044685846FBF70CF82070000A607050465B
:10551000FBF706F8A070000AE0702671330A637189
:10552000330CA371360EE6710198FAF7FEFF207274
:10553000030A6372030CA372000EE072A808053020
:10554000000380B24B461843FAF7EAFF2073000AC3
:1055500060734046FAF7E4FFA073000AE07300238B
:1055600023746374A374E374380003B0F0BCBB46C7
:10557000B246A946A046F0BD014808F0B5FCC046B9
:10558000C4CD021010B584B0041E13D0408D03901A
:1055900010200290208B0190E08A0090606AFFF753
:1055A00089FF002804D0638D626A94466344E362F5
:1055B00004B010BD014808F097FCC046F4CD0210BD
:1055C000F0B585B00500080016000AAC04CC2488AC
:1055D0000CA90F88002B1AD0002A1BD0FAF7A5FFC0
:1055E0000300402203922C3A029201970094002279
:1055F00000213000FFF75EFF041E05D000230022CB
:1056000001002800FFF79EFE200005B0F0BD034812
:1056100008F06AFC024808F067FCC0461CCE021085
:1056200038CE021010B5002802D0007A002803D12D
:10563000100004F029F910BDFBF710FDFBE7000096
:10564000F0B5C64600B584B004000D001600002871
:105650000CD000290DD0002A0ED0FFF763FE0028E1
:105660000DD0002004B080BCB846F0BD474808F01B
:105670003BFC474808F038FC464808F035FC2769F1
:10568000686AFAF752FF3872030A7B72030CBB7226
:10569000000EF8722769688DFAF742FFB873000AA6
:1056A000F8736B8D6A6A94466344EB62276914232E
:1056B0009846B844237BDB0740D43022AB5E002BF6
:1056C0004BDB6B6B002B4BD06268236951685B1A14
:1056D0009BB25189C91A518161680A89D31A0B8119
:1056E00062682369536000221A745A742769227B06
:1056F0009200042313401433FB18984542D12B1D0C
:10570000984663681A89434600932B000621606817
:10571000FBF7E0F93874000A78741F4978228B5A35
:1057200001338B52EB7A60680296723A0192AA7A40
:1057300000924246290004F017FB93E72A1D31002E
:105740001648FDF77BF981239B041843FAF7EDFE19
:10575000786118239846B844AFE700232B86B0E75A
:105760000F4B1B686B63216908794B791B0203435C
:105770008A7912041343C87900061843FAF7D5FE54
:10578000A863A1E7074808F0AFFBC04654CE02105B
:1057900074CE021094CE02109C3B0020B405000091
:1057A00018D90020FCCC0210F0B5CE46474680B593
:1057B00085B006000C00170098460C9B002B2AD0E1
:1057C0004B6899460A89434600933B000621200016
:1057D000FBF780F94B461874000A5874002E1DD050
:1057E000F37AB57A0F487821425A013242520C9A24
:1057F000029206220192009542463900200004F0F0
:10580000B3FA05002000FBF70DFD280005B0C0BC71
:10581000B946B046F0BD044808F066FB0025FF23FA
:10582000E0E7C0469C3B0020B8CE0210F0B583B044
:1058300005000C0016001F0000290ED01A003100D0
:10584000FFF7F0FE00280BD000903B003200210053
:105850002800FFF7A9FF03B0F0BD044808F044FB9F
:105860002000FBF7DFFC04204042F4E7ECCE0210FE
:10587000F0B5DE4657464E464546E0B58FB0804609
:10588000069192460A93162308AA9446634400227E
:105890001A8000286DD06223C35A5B08428E110023
:1058A00005921A1C8B4200D90A1C92B2002A00D021
:1058B000059201230A9A1343DBB20793069B002B40
:1058C0005ED051464046FFF7D9FC031E099000D038
:1058D000E5E066334246D75AD66E002E63D03300D9
:1058E0003668002EFBD119000B931A7B920004231B
:1058F0001A400B89D1180598884248DB9B189BB247
:10590000059AD31A9BB268224146895A08910B9A8C
:10591000528991423ED1162208A98C4662440899C8
:105920001180002915D0994237D8089A111C524588
:1059300000D951460A1C89B2994200D91A1C93B267
:10594000089AD11A162208A8844662441180089346
:105950000B9E162308AA944663441B88002B02D092
:10596000089B53451CD1089C002399469B46300058
:1059700062E08D480AF034F910235B4209938EE00F
:105980008A480AF02DF910235B42099387E0884882
:1059900008F0AAFA874808F0A7FA874808F0A4FA9E
:1059A000864808F0A1FA6823D35A0893002B01D146
:1059B0000B96D8E7824808F097FAADB24A465342B0
:1059C00053410293079B019343460093162308AA71
:1059D00094466344059A29003620FFF7CBFC061E47
:1059E0003BD04389AB4232D3069B19192A00406849
:1059F00009F09EFF3000FBF731FD3F18BFB2202FAA
:105A000028D84346DB6DE31800220092310040465F
:105A1000FFF7D6FC002820D0162308AA944663443A
:105A20001B8843814B46002B44D05B46002B3ED065
:105A300018606419A4B2834654453DD253461B1BDB
:105A40009BB2059A151C9A42B7D91D1CB5E75D4853
:105A500008F04AFA3000FBF7E5FB43465B8B8022F7
:105A6000134342465383584984228B5A01338B5245
:105A70004B46002B02D04846FCF755FF66234246B2
:105A8000D35A002B00D187E0136F002B00D087E0A2
:105A9000D36E002B00D17CE001235B42099309986F
:105AA0000FB0F0BCBB46B246A946A046F0BD474881
:105AB00008F01AFA8146BCE70600089D002D24D0A4
:105AC0000B9B5C6800E02468002C11D02389EB1844
:105AD00023812368002BF6D1608963689C4660446B
