:020000041000EA
:1000000000B5324B212058609868022188439860DF
:10001000D860186158612E4B002199600221596106
:100020000121F02299502B49196001219960352056
:1000300000F044F80222904214D00621196600F024
:1000400034F8196E01211966002018661A6600F04E
:100050002CF8196E196E196E052000F02FF8012189
:100060000842F9D1002199601B49196000215960AB
:100070001A491B48016001219960EB211966A021F2
:10008000196600F012F800219960164914480160C1
:100090000121996001BC002800D000471248134993
:1000A000086003C880F30888084703B5996A0420EC
:1000B0000142FBD001200142F8D103BD02B5186610
:1000C0001866FFF7F2FF186E186E02BD00000240BE
:1000D000000000180000070000035F00212200005C
:1000E000F4000018222000A00001001008ED00E03C
:1000F00000000000000000000000000074B24E7A12
:1001000000200420F7010010C3010010C5010010F9
:10011000C1010010C1010010C1010010C101001097
:10012000C1010010C1010010C1010010C701001081
:10013000C1010010C1010010C9010010CB01001065
:10014000CD010010CD010010CD010010CD01001037
:10015000CD010010CD010010CD010010CD01001027
:10016000CD010010CD010010CD010010CD01001017
:10017000CD010010CD010010CD010010CD01001007
:10018000CD010010CD010010CD010010CD010010F7
:10019000CD010010CD010010CD010010CD010010E7
:1001A000CD010010CD010010CD010010CD010010D7
:1001B000CD010010CD010010CD010010CD010010C7
:1001C00000BE00BE00BE00BE00BE00BEEFF3058054
:1001D000103800BEF2EB8871A8BE0610C8BE06102B
:1001E0003402001090A31AE700201F49086006C8D7
:1001F00081F3088810471D48006800282FD10DA4FE
:100200000ECC002902D000F012F8F9E71849194A7B
:10021000002000E001C19142FCD1174988471749ED
:1002200088471749884700BEFDE701C901C29A42C5
:10023000FBD37047C8BE0610C00000201016002077
:1002400018D40610000004200000042018D4061062
:10025000001004200010042000000000704709482E
:100260000AF00CFE0047000008ED00E0000000D09E
:100270003016002074D900203DE000105503001016
:10028000F9DF00105756000006005250ABB3605320
:10029000600C031006005250861C0302700C031001
:1002A000060052505422A29D7C0C031005005250AF
:1002B000DE65F46818D40610F8B5C0460448054B4E
:1002C00010B5834203D0044B002B00D0984710BDDB
:1002D00010160020101600200000000006480749F4
:1002E000091A8B10C90FC91810B5491003D0044B57
:1002F000002B00D0984710BD1016002010160020CB
:100300000000000010B5074C2378002B09D1FFF73F
:10031000D5FF054B002B02D0044800E000BF0123AD
:10032000237010BD701700200000000018B90210E3
:10033000054B10B5002B03D00449054800E000BF71
:10034000FFF7CCFF10BDC04600000000741700206E
:1003500018B9021010B5AAB00FF0B0FD002408E0E3
:1003600021003E480FF09EFDFA2080000CF078F846
:100370000134132CF4DD26F03DFF002859D126F07E
:100380000DFE374B374A3849384826F0D1FE002851
:1003900056D1102101200FF0FBFB0400344B1860F4
:1003A0000DF00EFC606029A9324809F05DFE041EC4
:1003B0004BD12F4B1868304B019300902F4B304A94
:1003C00029A940680DF004FC041E42D1284B18688E
:1003D00000232C4A2C4940680DF0E6FB09AA2B4B60
:1003E00013CB13C211001A680A601B790B71284BDA
:1003F0001A6804921A7904AB1A7126F0F5FD2AF0F6
:100400009BFB1B4B1C6809A82BF03EF883B260686D
:100410000394204A0292002201920232009209AA19
:1004200004A90DF011FB2AF091FB1B480CF018F801
:10043000E3E71A480FF006FD012420002AB010BDA2
:1004400017480FF0FFFC0124F7E716480FF0FAFCFD
:10045000F3E715480FF0F6FCEFE7C04618B90210B5
:10046000307500000400400040B902104CB9021081
:100470008CD600206CB90210B4B90210D50400105B
:100480005B070000AD040010BD04001098B9021015
:10049000ACB9021001050010B80B000028B9021019
:1004A00058B902107CB9021088B9021010B5016861
:1004B00001480FF0F7FC10BDD4B9021010B50C00C4
:1004C00013000168220002480FF0ECFC10BDC0468A
:1004D00000BA021010B51400096806480FF0E2FCDB
:1004E000002C03D104480FF0ADFC10BD03480FF001
:1004F000A9FCFAE730BA02105CBA021070BA021016
:1005000010B502480FF0CEFC10BDC04684BA0210F0
:1005100010B501F0D3FB00F01EFB00F091FB00F0E2
:1005200065FC06F095FB02F0EDF900F018FA06F014
:10053000A7FA10BD0302000A184380B270470306F1
:100540000202FF2109040A401343020AFF210902A3
:100550000A401343000E18437047000000280AD0D9
:10056000C07A002809D1431C9B00054A9B58002BE8
:1005700004D0012002E0002000E000207047C046C7
:100580001433002010B50AF06BFB80B2002301E0A9
:100590000133DBB2032B0FD81A01D218120107491D
:1005A0008A18927A022AF3D11A01D21812018A18F3
:1005B00012898242ECD1E6E710BDC0461C33002010
:1005C000F0B5D6464F464646C0B5060088460024DC
:1005D00001E00134E4B2032C23D8250063001B1989
:1005E0009B00314A9F58002FF3D063001B199B00DA
:1005F000D3181B7AB342ECD13001801900011030BE
:100600002A4BC0189246630099461B199B0053441D
:100610005A684146B8474D44AD0000235246AB509E
:10062000D7E7002301E00133DBB2032B1BD8B34231
:10063000F9D01A01D21812011C498A18927A022A9A
:10064000F1D11A01D21812018A18D07B3201921905
:1006500012018A18D27B9042E5D133019B191B010C
:10066000CB180422DA7333019B191B010F4AD318EC
:10067000DB7B032B04D9E0BCBA46B146A846F0BDEB
:100680000B4C9B00185906F0E1FD084A3001831914
:100690001B01D318DB7B9B0000211951801900013D
:1006A00010180423C373E6E7E43200201C33002053
:1006B000D4320020F0B5D6464F464646C0B584B089
:1006C0008046030143441B01534AD318DB7A012BB4
:1006D00034D89B00514A9B58002B32D0040144442B
:1006E000240110344C4BE41820002AF0CDFEA02247
:1006F000123081B29200362000F0E0FE81460028E0
:1007000000D185E001AD0C22002128000FF05EFA37
:1007100043461B0143441B013F4AD3181889FFF786
:1007200009FF28800123AB70FF33AB800C22290026
:10073000484601F053F9661E0C2737E038480DF0A3
:1007400027FD0021FFF73CFF434618014044070105
:10075000314BDF190023BB720024200004B0E0BC41
:10076000BA46B146A846F0BD0134E4B2013633784A
:100770002E2B01D0002BF7D1731B9BB29A463B194D
:10078000284A934216DC22003900484601F0E1F97C
:100790007B1C9BB252462900484601F06BF93C197C
:1007A000A5B26F1CBFB23378002B09D001363500DB
:1007B0000024DCE7484600F02FFE06246442CCE724
:1007C00000223900484601F0C4F90235ABB280225C
:1007D000520069460A804A80FC3A484601F04AF9CC
:1007E0000D4943461B0142469A1812018A18D07BD4
:1007F000D37A9B00094AD21880000B494058352310
:10080000494606F09BFC0400484600F005FEA4E7BC
:1008100001246442A1E7C0461C33002014330020A9
:10082000A4BA0210FEFF0000D432002070B504000C
:10083000000100190001414BC018032C20D82301EE
:100840001B191B013D4AD3189B7A022B34D01AD8AE
:10085000002B14D0012B00D06CE0FFF793FE37493A
:10086000220113191B01CB18188102209872002055
:10087000D87201251D7358732000FFF71BFF70BD50
:100880002F480DF085FC032B54D123011B191B01AC
:100890002A4A9B58002B07D0013B22011219120152
:1008A00026495350002BEAD1200104192401234882
:1008B00004190023A372E2E723011B191B011F4A3D
:1008C000D218137B013BDBB21373002BD7D123016A
:1008D0001B191B01194AD218537B0133DBB2537326
:1008E000042B09D022011219120114498A1813731A
:1008F0002000FFF7DFFEC2E7FFF730FE00280DD033
:100900000E49220113191B01CB18D87A0130D87275
:10091000012018731A0000235373E9E70021200017
:10092000FFF74EFE200104192401044B1C1900237B
:10093000A372A4E703480DF02BFCC0461C33002033
:10094000BCBA0210D8BA021010B5002404E020008E
:10095000FFF76CFF0134E4B2032CF8D910BD7047E7
:10096000012800D97047002904D080000A68044B90
:10097000C250F7E78000034B1A68014BC250F1E701
:10098000143300206CE5021010B5FFF7DDFF10BD39
:1009900030B583B06B460022DA8001231D0005408C
:1009A000184206D0002904DD02786B46DA7101395D
:1009B0000130032213000340104209D0012903DD56
:1009C00003880239023003E0002301E008392000E7
:1009D00007290CDD0268D218934200D901320400C5
:1009E000083443689B189A42F0D90133EEE71A0C99
:1009F0001B041B0CD31803E002889B180239023039
:100A00000129F9DC002902DD01786A4691716A4604
:100A100006321288D318180C1B041B0CC318180CB0
:100A20001B041B0CC018002D05D003061B0C020A6A
:100A3000FF201040184380B203B030BDF0B583B042
:100A40000600019115001C00002700E03668002E0A
:100A500015D071897068FFF79BFF0019040C000422
:100A6000000C24187389DB07F0D57B425F41FFB28D
:100A70002206120C230AFF241C401443E6E7002F31
:100A800005D02206120C230AFF241C4014436B4697
:100A90009888FFF74FFD24182800FFF74BFD20181A
:100AA000030C0004000C1818030C0004000C1818A8
:100AB000C04380B203B0F0BD70B51C6825042D0C96
:100AC000230C5B19049C246825042D0CED18230CC1
:100AD0005B191C0C1B041B0CE3181C0C1B041B0CCB
:100AE000E318FFF7ABFF70BD10B582B0049C009413
:100AF000FFF7E2FF02B010BD10B5FFF749FFC0439A
:100B000080B210BD70B505000026002400E02D68FD
:100B1000002D15D069896868FFF73AFF0019040CA9
:100B20000004000C24186B89DB07F0D573425E418A
:100B3000F6B223061B0C240AFF2004401C43E6E700
:100B4000002E05D023061B0C240AFF2004401C4362
:100B5000E04380B270BD70477047000010B50FF0E1
:100B600005F8041E06D0C31C03229343834206D11A
:100B7000200010BD09F0D4FC09F0D4FCF8E70148CE
:100B80000DF006FBF8BA021010B5002807D0C31C00
:100B900003229343834205D10FF00CF810BD0348A4
:100BA0000DF0F6FA02480DF0F3FAC0461CBB021035
:100BB0002CBB021010B50EF0EBFF10BD10B50400F9
:100BC00009F0AEFCE3681C68002C0AD022681A60A9
:100BD000A30703D109F0A6FC200010BD02480DF0C8
:100BE000D7FA09F09FFCF7E744BB021070B5050087
:100BF0000C008B0709D109F093FCEB681B6823609C
:100C0000EB681C6009F08EFC70BD01480DF0C0FA65
:100C100068BB0210C36800221A6083680333033282
:100C20009343002207E0C16809681960C1680B603E
:100C300081885B180132C1889142F4DC7047000062
:100C400010B5002406E0A200044BD058FFF7E2FFE5
:100C50000134A4B2092CF6D910BDC046D4BC021090
:100C600010B5092805D88000044BC058FFF7A6FF2F
:100C700010BD03480FF016F90020F9E7D4BC0210AC
:100C800088BB021010B5092807D8002904D08000BD
:100C9000044BC058FFF7AAFF10BD03480FF002F93C
:100CA000FAE7C046D4BC0210A8BB02100C20404298
:100CB0007047000010B584B00C6883689C4217D060
:100CC000002913D084603A23C15C0133C25CE3B2D3
:100CD000200E02902002000E01902404240E0094A5
:100CE00004480FF0DFF8012004B010BD0024E9E74C
:100CF0000020F9E7FCBC021010B584B00C68C36892
:100D00009C4217D0002913D0C4603A23C15C013340
:100D1000C25CE3B2200E02902002000E0190240477
:100D2000240E009404480FF0BDF8012004B010BD5B
:100D30000024E9E70020F9E738BD021070B504008F
:100D40000D0002F017FA2900200006F0AFFA290082
:100D5000200000F097FF70BD10B500280DD039239A
:100D6000C25C343B1340052B06D1CB0704D5436846
:100D7000002B01D0130703D410BD03480DF008FA6F
:100D8000011D07F07BFEF7E774BD021070B582B05D
:100D900005000C001600002908D0002A09D043687D
:100DA0000A689A4208D1002002B070BD0D480DF0CB
:100DB000EFF90C480DF0ECF9019233600A480FF09E
:100DC00041F801A93000FFF7B9FF23686B600121EA
:100DD0002800FFF7C1FFEB69002B01D028009847DE
:100DE0000120E1E798BD0210A8BD02107047000085
:100DF000F0B5C64600B582B005000C0017001E0015
:100E0000002920D0002F20D0002E20D0002C02D08E
:100E10002368002B1DD101AA21002800FFF7B6FF8F
:100E200001239846002239002800FFF743FF0022E3
:100E300031002800FFF760FF4346002B0CD002B0C2
:100E400080BCB846F0BD074CDCE7064FDCE7054E3A
:100E5000DCE700239846E5E701AA21002800FFF718
:100E600095FFECE76CE50210F0B5D6464F464646D6
:100E7000C0B582B0071E8A469146984636D00B9B75
:100E8000002B38D000293BD04B46002B3BD04346AB
:100E9000002B3BD000247C60BC60FC606B4B7B6112
:100EA0003C8600223923FA543800283004220021DD
:100EB0000EF08CFEFC613C620A9B7B62644B1A78EC
:100EC0003C23FA540C9B3B6143464A46514638004A
:100ED000FFF78EFF38000B9B9847002828D0002092
:100EE00002B0E0BCBA46B146A846F0BD59480EF083
:100EF000D9FF3800F4E758480EF0D4FF0020EFE7A0
:100F0000564B9A46C0E7554B9946C0E7534B984617
:100F1000C0E7C33B0022FA540EE051480DF038F907
:100F200050480DF035F901303C23F854002C15D011
:100F30003C23FB5CFF2BECD04B4B1A6814000025C4
:100F4000002CF3D0BC42E8D00135FF2DE8DC3C2674
:100F5000A35DB85D8342E6D02468F1E73C23FB5CE7
:100F6000FE2B56D001333A490B703A603E4B1F605E
:100F70003A23F95C0133FA5C3C480EF093FF3C489D
:100F80000EF090FF5346002B47D019785346002BA4
:100F900045D05A785346002B43D09B7850460028C2
:100FA00041D0C078009033480EF07CFF32480EF0FC
:100FB00079FF4B46002B38D019784B46002B36D0A2
:100FC0005A784B46002B34D09B784846002832D0C4
:100FD000C078009027480EF065FF28480EF062FFA9
:100FE0004346002B29D019784346002B27D05A7846
:100FF0004346002B25D09B784046002823D0C0785C
:1010000000901C480EF04EFF0A200EF0E7FE38005C
:1010100066E70F4B00211970A7E70021B6E7002211
:10102000B8E70023BAE70020BCE70021C5E70022AB
:10103000C7E70023C9E70020CBE70021D4E700225F
:10104000D6E70023D8E70020DAE7C046AD0C001051
:1010500068D90020D8BD0210F4BD02106CE5021062
:1010600018BE02102CBE021094D600205CBE0210E6
:101070007CBE021084BE021094BE0210A0BE0210FC
:1010800010B5094B1860002809D03A23C15C00282C
:1010900007D03B23C25C05480EF004FF10BD27219A
:1010A000F5E72722F7E7C04690D60020A8BE021039
:1010B00010B5041E10D03923C35CDA070BD401220B
:1010C000134339228354C369002B00D0984703216E
:1010D0002000FFF741FE10BD01480EF0E3FEFAE7E5
:1010E000D0BE021010B5041E0FD03923C35CDA073E
:1010F0000AD501229343383283541B0709D4E3698C
:10110000002B01D02000984710BD03480EF0CAFE06
:10111000FAE707F005FCF2E7ECBE021010B5041E7A
:101120002DD04368002B12D13923E35CDB0713D4A5
:10113000134B1B68A34213D0124B1B68A34213D05E
:10114000002B17D01A68A24212D01300F8E704301F
:101150000021FFF7F3FDE7E72000FFF7C3FFE7E714
:101160000020FFF78DFFE7E72268064B1A6003E0D7
:1011700022681A60002B02D003480EF063FE10BDF7
:1011800090D6002094D600200CBF021010B5041E8B
:1011900004D03923C35C5A0704D510BD09480EF0AA
:1011A00081FEFAE7042213433922835406F0C2FF7A
:1011B00003212000FFF7D0FD236A002BEDD0200093
:1011C0009847EAE728BF021010B500280CD0392351
:1011D000C35C5A0707D50422934335328354036A0C
:1011E000002B00D0984710BD01480EF05BFEFAE7D7
:1011F0004CBF0210021E0BD0064B1868002808D006
:101200003C23C35C0133DBB2934202D00068F5E7B4
:101210000020704794D6002030B504AC2578002417
:10122000046041600281438103AB1B780373457303
:1012300001238373C47330BD02E0C91A89B2006808
:10124000002802D043898B42F7D9002A00D01180B0
:101250007047000010B509F063F9034B01221A70C2
:1012600009F060F910BDC0466AD9002070B5041EAF
:1012700023D080235B0299422ED200292ED08DB23A
:1012800003895B199BB2AB422AD30C23C356002BB4
:1012900016DB002A26D043685E1A09040B0C3200C4
:1012A000616811480EF0FEFD666063895B19638119
:1012B00023895D19258100200FE00C480CF068FFA0
:1012C00043685E1A02001032B242E6D93100084883
:1012D0000EF0E8FD012000E0012070BD0020FCE7D9
:1012E0000120FAE70120F8E7BCBF0210A4DE0210DB
:1012F00070BF021010B509F013F90A4B00221A70E2
:1013000009F010F9084B1C6800E0E468002C08D0D4
:10131000636F002BF9D005480EF094FD200001F01A
:10132000A1FD10BD6AD9002008D90020E4BF021039
:10133000F0B583B007000E001500412A01D0012A44
:101340000FD10820FFF78CFC041E0DD00023019361
:101350000095330032003900FFF75EFF200003B034
:10136000F0BD06480CF014FF012D04D004490548D7
:101370000EF098FDF2E70449F9E7C0461CC00210E0
:1013800014C0021030C0021018C0021010B50022A4
:10139000FFF76CFF10BD000070B50B00002818D0DF
:1013A0008022520291421CD200291CD08DB2448965
:1013B000AC4211D34168CA184260641B448104895D
:1013C000651B05811B041B0C08480EF06BFD0020FB
:1013D00008E007480CF0DCFE06480EF063FD012033
:1013E00000E0012070BD0020FCE7C04694C0021060
:1013F000A4DE021074C0021010B5002902DBFFF752
:1014000035FF10BD4942FFF7C7FFFAE710B50122CB
:10141000FFF7F2FF10BD000070B5041E05D00100FB
:1014200020480EF03FFD00260CE01F480CF0B0FEF7
:101430001E480CF0ADFE21000920FFF723FC013609
:10144000F6B22C00002C2AD009F06AF8A57B002DFA
:10145000EED0013DEDB2A57309F064F8002D19D16D
:101460002568210012480EF01DFD227B0F2313403A
:10147000022BE0D0012B05D0002B08D12000FFF774
:1014800083FBDCE721000820FFF7FCFBD7E70948D6
:101490000CF07EFE2A00210007480EF003FD30000C
:1014A00070BDC046C0C00210A4DE0210D0C0021041
:1014B000E8C0021004C1021018C10210F0B5DE46E7
:1014C0004F464646C0B584B005000F00914684B231
:1014D00003914A480EF0E6FCC1235B00994542D0D7
:1014E00017D84B46012B02D0412B00D07DE04A4655
:1014F00039000020FFF71CFF804642460399404810
:101500000EF0D0FC404604B0E0BCBB46B146A84655
:10151000F0BDA0239B00994567D1EB1C03218B43B1
:10152000FA1C8A439B18180010309A4260D88242F5
:1015300061D8FFF713FB80460028E3D02900103163
:10154000414403310324A143002301934B460093FC
:101550003B003A00FFF760FE43465B682342CCD075
:1015600028480CF015FE00250023984626E0FFF7DA
:1015700071FE4346002B02D04046FFF74DFFA846C0
:10158000C0E7B6B221001031691803310324A1432A
:10159000002301934B46009333003A002800FFF7E5
:1015A0003BFE6B6823421BD14346002B1BD05B469E
:1015B0001D60BF1BBFB20024002F9ED0AB46092088
:1015C000FFF74EFB051ED2D0E31C032293439AB2D1
:1015D0000D4B9B1A9BB21E1CBB42D2D93E1CD0E7BE
:1015E0000A480CF0D5FDA846E3E709480CF0D0FD09
:1015F0000023984686E70023984683E744C10210FB
:1016000008C20210C0C10210EC0500005CC102104B
:10161000ECC1021070B5041E12D00089884220D996
:101620000D006389AB420ED2ED1AADB223890A1ABE
:101630009B1823812468002CF3D112480CF0A8FDDC
:1016400011480CF0A5FD227B120701D1AB4209D154
:10165000658125812068002801D0FFF7DDFE002389
:10166000236070BD6368191B69182000FFF774FAC6
:10167000002804D08442EBD004480CF089FD0448D3
:101680000CF086FD40C2021028C2021074C2021083
:1016900058C202100300002002E0013080B21B6833
:1016A000002BFAD17047000010B5041E09D008F0D5
:1016B00037FFA37B0133A37308F034FFA37B002B18
:1016C00000D010BD01480CF063FDC04690C202106E
:1016D00010B5002801D0002908D10C480EF0E2FB1B
:1016E0000FE003890C891B19038110000268002A8E
:1016F000F7D103894289934204D10A899B18038157
:10170000016010BD02480CF043FDC046A4C20210A7
:10171000DCC2021070B505000C00FFF7D9FF2000F5
:10172000FFF7C2FF2200290001480EF0BBFB70BD8D
:101730000CC30210F0B5CE46474680B583B0060014
:101740000D009146984614001F00009313000A00F4
:10175000010047480EF0A6FB002D0AD02B894B450F
:1017600007D3002E0BD03389E419A34207DB0027EF
:1017700026E040480EF096FB1020404273E03E48C1
:101780000EF090FB102040426DE03C480CF000FD54
:101790003B480CF0FDFC4B46002B36D10027424560
:1017A00039D0002D03D06A892B899A4245D0002E6A
:1017B00003D0728933899A4248D04B46002B4ED0D1
:1017C000738942469B1A6A89D21B934200D3130045
:1017D0004C46994500D91C00706840446B68D91983
:1017E00022000EF0F9F9A0443F194B461C1BA3B28E
:1017F000994672894245C8D36B89BB42C8D3CED8BB
:101800002D68002DC7D00027C9E71E480EF04AFBFF
:101810001020404227E03668002E02D00023984670
:10182000BFE74B46002B02D100239846B9E7164884
:101830000EF038FB1020404215E02B68002BB6D08C
:1018400012480EF02FFB062040420CE03368002BBC
:10185000B3D00E480EF026FB0620404203E00C48B1
:101860000EF0F0FA002003B0C0BCB946B046F0BD9F
:101870002CC3021058C302108CC30210BCC3021048
:10188000D4C30210F0C3021000C4021010C402102E
:1018900048C4021070B505000C000A000100094898
:1018A0000EF000FB002C06D0228900232100280026
:1018B000FFF740FF70BD04480EF0F4FA10204042DC
:1018C000F8E7C04670C4021084C40210F8B5CE46D2
:1018D000474680B50500884691461900002805D086
:1018E0004346002B0BD00027002625E019480EF0B8
:1018F000D9FA00273800C0BCB946B046F8BD164832
:101900000EF0D0FA0027F5E76C89641AA4B2A1455D
:1019100000D24C46434698196B689C4661442200AD
:101920000EF05AF9E719BFB23619B6B24B461C1B76
:10193000A3B2994600212D684B46002BDAD0002D2A
:10194000D8D00029E0D06B898B42DDD8C91A89B282
:10195000F1E7C046A0C40210C0C4021070B582B046
:1019600004000E001D0006AB1988002814D0002EBC
:1019700017D095421AD86B469A1DFFF75DFC0028D8
:1019800008D041896B4606331B885A19914212DBF5
:101990004068C01802B070BD0C480EF083FA2000F9
:1019A000F8E70B480EF07EFA3000F3E708480EF037
:1019B00079FA0020EEE72A003100FFF787FFA842FE
:1019C00001D13000E6E70020E4E7C046E4C402109D
:1019D00008C5021010B5FFF72FFC10BDF8B5CE46B4
:1019E000474680B50500884616009146002806D077
:1019F00000290AD0038993420DD300271DE018481F
:101A00000EF050FA1020404223E016480EF04AFA39
:101A1000102040421DE014480EF044FA01204042DC
:101A200017E012480CF0B4FB4346D919220068684D
:101A30000EF0D2F8361B3F192D68002E06D0002D6F
:101A4000EFD06C89B442EFD33400EDE74F4504D1B9
:101A50000020C0BCB946B046F8BD05480CF098FB64
:101A600030C5021048C5021064C5021084C50210BA
:101A70009CC50210F0B583B00F00140019006B462E
:101A80009A1DFFF7A7FF061E24D002896B46D8884F
:101A900003199A4221DB7389984212D21A1A94428E
:101AA00012DD95B273689C4660442A0039000EF03E
:101AB00093F8621B92B27919002A07D1002003B073
:101AC000F0BD07480CF064FB2500EBE73068FFF73A
:101AD00085FFF4E701204042F1E701204042EEE7B4
:101AE000B4C5021070B50B00150011891A00FFF77C
:101AF000E5FC041E04D02900FFF7CCFE002801D12C
:101B0000200070BD01480CF043FBC046CCC502105C
:101B100000B583B06B469A1DFFF78EFB002809D0F5
:101B200042896B4606331B889A4206D94268D05CCC
:101B300003B000BD01204042FAE701204042F7E730
:101B400010B5FFF7E5FF002801DA002010BDC0B294
:101B5000FCE710B582B014006B469A1DFFF73AFF00
:101B6000002807D042896B4606331B889A4201D968
:101B70004268D45402B010BD10B5027A002A07D0D2
:101B8000134B5C683C23E35C0133DBB29A4213D114
:101B9000002906D0002811D00368002B10D00020A7
:101BA0000BE000280ED00368002B0DD0084A5269C4
:101BB00093420BD0080000E0002010BD0120FCE79C
:101BC0000120FAE70120F8E70120F6E70120F4E719
:101BD000803B0020F0B5D6464F4680B583B0050067
:101BE000244B1968586908F01EFA07006B685E7A82
:101BF000214B1C6800239946019313E063699A46C0
:101C0000002B0DD06B6899461C4B2A002100A0695F
:101C1000D04700281AD16B684B4528D1022399463A
:101C20000194E468002C1CD0237C9E42F8D139003A
:101C30002000FFF7A1FF0028F2D0637CDB07DDD591
:101C40000C4B1B6962689A42EAD1D7E7019B002BD3
:101C500005D0E268DA60084B1A68E2601C60012374
:101C60009946484603B0C0BCBA46B146F0BD0448E8
:101C70000CF08EFA803B0020C0D60020903B002064
:101C8000E0C5021010B5002814D00368002B11D055
:101C900000290FD00B68002B0CD0074B1B6800E00D
:101CA000DB68002B06D01A680468A242F8D10A68E3
:101CB0001A60F5E710BDC046C0D60020704710B5C9
:101CC0000520FEF7CDFF041E03D02C2200210DF0CD
:101CD0007DFF200010BD10B5041E0AD00368002B44
:101CE00003D05B6C002B00D0984721000520FEF745
:101CF000C9FF10BD002800D081607047002800D0C7
:101D000001617047002800D081617047002800D031
:101D1000C161704710B500280AD001622823C2545F
:101D20000368002B04D01B68002B01D011009847DA
:101D300010BD002800D04162704710B5002806D0C1
:101D40000368002B03D05B68002B00D0984710BDC0
:101D500010B5002807D00368002B07D09B68002B24
:101D600007D0984710BD06204042FBE706204042BE
:101D7000F8E706204042F5E710B5002807D00468D0
:101D8000002C07D0E468002C07D0A04710BD062027
:101D90004042FBE706204042F8E706204042F5E7D4
:101DA00010B5031E07D00068002804D00469002C79
:101DB00002D01800A04710BD0020FCE710B5002895
:101DC00006D00368002B03D05B69002B00D0984736
:101DD00010BD10B5002807D00368002B07D09B6901
:101DE000002B07D0984710BD06204042FBE7062095
:101DF0004042F8E706204042F5E710B5002807D03A
:101E00000368002B07D0DB69002B07D0984710BD73
:101E100006204042FBE706204042F8E70620404209
:101E2000F5E710B5002807D00468002C07D0246A15
:101E3000002C07D0A04710BD06204042FBE706203B
:101E40004042F8E706204042F5E710B5002807D0E9
:101E50000368002B07D05B6A002B07D0984710BDA2
:101E600006204042FBE706204042F8E706204042B9
:101E7000F5E710B5002807D00368002B06D09B6A51
:101E8000002B05D0984700E0002010BD0020FCE7A3
:101E90000020FAE710B5002807D00368002B06D011
:101EA000DB6A002B05D0984700E0002010BD002021
:101EB000FCE70020FAE710B5002807D00368002BE4
:101EC00006D01B6B002B05D0984700E0002010BD0A
:101ED0000020FCE70020FAE710B5002806D00368D0
:101EE000002B03D05B6B002B00D0984710BD10B5C2
:101EF000002806D00368002B03D09B6B002B00D07A
:101F0000984710BD10B5002807D00368002B06D0F5
:101F1000DB6B002B05D0984700E0002010BD0020AF
:101F2000FCE70020FAE710B5002806D00368002B74
:101F300003D01B6C002B00D0984710BD10B50028B3
:101F400007D00468002C07D0A46C002C07D0A04751
:101F500010BD06204042FBE706204042F8E706207D
:101F60004042F5E710B5031E07D00068002804D0F2
:101F7000C26C002A02D01800904710BD0020FCE778
:101F800010B5002807D00368002B06D01B6D002B6E
:101F900005D0984700E0002010BD0020FCE700209D
:101FA000FAE710B5002806D00368002B03D05B6D5C
:101FB000002B00D0984710BD10B5002806D004684B
:101FC000002C03D0A46D002C00D0A04710BD10B58C
:101FD000002807D00368002B06D0DB6D002B05D04E
:101FE000984700E0002010BD0020FCE70020FAE741
:101FF00010B5002805D04068002805D0FFF7A8FEDE
:1020000010BD06204042FBE706204042F8E710B52D
:10201000002811D0002909D0002A07D00368002B1E
:1020200004D09B69002B01D0984704E04068002849
:1020300005D0FFF7E2FE10BD06204042FBE7062078
:102040004042F8E710B5002805D04068002805D0C8
:10205000FFF7FBFE10BD06204042FBE70620404292
:10206000F8E710B5002807D04068002801D100200B
:1020700010BDFFF70FFFFBE70020F9E710B50028C0
:1020800007D04068002801D1002010BDFFF713FFE2
:10209000FBE70020F9E710B5002804D040680028CD
:1020A00001D0FFF719FF10BD10B5002804D040681B
:1020B000002801D0FFF71BFF10BD10B5002807D086
:1020C0004068002801D1002010BDFFF71BFFFBE78F
:1020D0000020F9E710B5002804D04068002801D09E
:1020E000FFF721FF10BD10B5002805D0406800287B
:1020F00005D0FFF723FF10BD06204042FBE7062076
:102100004042F8E710B5002804D04068002801D00C
:10211000FFF728FF10BD10B5002807D04068002841
:1021200001D1002010BDFFF72BFFFBE70020F9E7EE
:1021300010B5002804D04068002801D0FFF731FF17
:1021400010BD10B5002804D04068002801D0FFF76A
:1021500033FF10BD10B5002807D04068002801D11A
:10216000002010BDFFF733FFFBE70020F9E770B553
:102170000500080000F0F4FA041E0BD0010028004E
:1021800010F052FE051E01D0280070BD2000FFF7A0
:1021900020FEF9E70500F7E710B50C00010020006C
:1021A00000F02EFD237D012B00D110BD064920003B
:1021B00000F02AFD0549200000F034FD044920000C
:1021C00000F03EFDF1E7C046E9240010492200106E
:1021D0002B22001070B504000D00FFF7DDFFE56055
:1021E000014B236070BDC04658C60210F8B504000C
:1021F0000F00160000280FD00369002B0FD0FFF747
:102200005EFD051E0ED03900FFF7E4FF2369A068CC
:10221000320029009847F8BD10204042FBE710200B
:102220004042F8E701204042F5E710B5041E09D00E
:102230000023C360436A002B01D0806898472000C8
:10224000FFF749FD10BD000010B5031E12D0C06895
:10225000884209D15968002909D1DC69002C0BD0CA
:1022600098681900A04710BD04480BF091FF04487E
:102270000BF08EFF0020F6E70020F4E72CC60210DA
:102280003CC6021010B500280AD0C3684268002A74
:1022900003D1002B06D0187D10BD03480BF078FF4A
:1022A0000020F9E70020F7E73CC6021070B50028CF
:1022B00018D0C468002C15D04068002813D1607A6B
:1022C000082528436072002900D108499420215034
:1022D000002A00D1064A98216250002B00D1093310
:1022E0009C22A35070BD03480BF052FF00DD6D002F
:1022F000F82401003CC6021010B5002809D0C368BC
:10230000002B06D04268002A04D15A7A08218A4359
:102310005A7210BD01480BF03BFFC0463CC602108C
:1023200010B500280ED0C3684268002A05D1002BE2
:102330000AD0002904D0D88A05E004480BF028FF11
:10234000188B00E0002010BD0020FCE73CC6021006
:1023500010B5031E08D0C0685B68002B05D10028AB
:1023600002D0002900D1043010BD01480BF010FF4D
:102370003CC6021010B54368002B00D110BD0148C7
:102380000BF006FF3CC6021010B500280DD0C36844
:10239000002B0CD04268002A04D15B8B9B090120E2
:1023A000184010BD03480BF0F3FE0020F9E70020B1
:1023B000F7E7C0463CC6021010B5002809D0C36834
:1023C000002B06D04268002A04D15A8B40218A4350
:1023D0005A8310BD01480BF0DBFEC0463CC602101C
:1023E00010B5002809D0C368002B06D04268002A27
:1023F00004D15A8B40210A435A8310BD01480BF087
:10240000C7FEC0463CC6021010B5002809D043687C
:10241000002B03D1C2686623D05A10BD02480BF0CE
:10242000B7FE0020F9E7C0463CC6021010B50028F0
:1024300009D04368002B03D1C2686423D05A10BD71
:1024400002480BF0A5FE0020F9E7C0463CC602108A
:1024500010B5002808D04368002B02D1C368588EFD
:1024600010BD02480BF094FE0020F9E73CC60210B4
:1024700010B5031E12D0C068884209D159680029DE
:1024800009D15C69002C0BD098681900A04710BDD9
:1024900004480BF07DFE04480BF07AFE0020F6E7BE
:1024A0000020F4E72CC602103CC6021010B5031E33
:1024B00012D0C2688A4209D14268002A09D1026A50
:1024C000002A0BD080681900904710BD04480BF01B
:1024D0005FFE04480BF05CFE0020F6E70020F4E706
:1024E0002CC602103CC6021070B5041E12D0C06883
:1024F000884209D16168002909D1A569002D09D058
:10250000A0682100A84770BD07480BF041FE0748AE
:102510000BF03EFE002A04D01000FEF77DFF0020E5
:10252000F1E70020EFE7C0462CC602103CC60210BF
:1025300010B5041E09D0C0686468002C02D100F0F8
:1025400077FC10BD02480BF023FE06204042F8E75E
:102550003CC6021010B5031E05D0C0685B68002B96
:1025600002D100F02BFB10BD01480BF011FEC0465C
:102570003CC6021010B5002809D04368002B03D1D7
:10258000C06803F073FF10BD02480BF001FE062087
:102590004042F8E73CC6021010B5002809D0446854
:1025A000002C03D1C06803F0ABFA10BD02480BF059
:1025B000EFFD06204042F8E73CC6021010B50028A7
:1025C00009D04368002B03D1C06800F0E9FF10BDBB
:1025D00002480BF0DDFD06204042F8E73CC6021041
:1025E00010B50400002100F00BFB237D012B00D16E
:1025F00010BD0021200000F007FB0021200000F0AA
:1026000011FB0021200000F01BFB627F0021200055
:1026100000F02CFBECE70000F8B5041E24D0436862
:10262000002B14D1C668002E0BD08C23F758300035
:10263000FFF7D6FF300000F0FDFE051E0AD1002393
:10264000E3602000FFF747FB00252800F8BD08489D
:102650000BF09EFD31002000FFF79EFD727F3900D8
:10266000300000F003FBF0E706256D42EDE7C046C1
:102670003CC6021010B503000A00002806D0C0684E
:102680005B68002B03D1034900F0F0FA10BD02484B
:102690000BF07EFDAD2400103CC6021010B5031EE9
:1026A00007D0C0685B68002B04D1002801D000F07F
:1026B000E7FC10BD01480BF06BFDC0463CC60210A4
:1026C00010B5041E0CD04368002B0AD1C06800F07E
:1026D0009BF9002804D0E060034900F0BFFA200015
:1026E00010BD02480BF054FDED2100103CC6021055
:1026F00010B500280BD04468002C05D14361C06898
:10270000044B00F0F7FA10BD03480BF041FD062022
:102710004042F8E7712400103CC6021010B50028B2
:1027200009D04368002B03D1C06800F009F910BD3F
:1027300002480BF02DFD06204042F8E73CC602108F
:1027400010B5031E05D0C0685B68002B02D100F0F5
:10275000EFF910BD01480BF01BFDC0463CC602104E
:1027600070B500F0C3FD041E0CD0FFF7A8FA051EDB
:1027700004D02100FFF72EFD280070BD200000F0DE
:1027800059FEF9E70500F7E710B5002409E0154BFD
:10279000154A1A800DE00134A4B28023DB019C426B
:1027A0001DD2104A138801339BB213800F4A934203
:1027B000EDD0002003280FD883000D4A9B581B68DA
:1027C000002B06D0D98A074A12889142E3D0DB68F1
:1027D000F6E70130C0B2EDE7024B188810BD0020CB
:1027E000FCE7C0465C0C002000C0FFFFFFFF0000BC
:1027F000FCCD021010B5002903D106480BF0C8FC2F
:10280000C068002805D0C36F8B42F9D10023C3678D
:10281000F6E710BDB8C6021070B5051E04D0037DE2
:10282000012B04D101240DE008480BF0B1FC08484D
:102830000BF0AEFCA200074BD35818682900FFF735
:10284000D9FF0134032CF5D970BDC046E0C6021093
:10285000ECC60210FCCD021010B50100037D012B67
:1028600003D00320FEF70EFA10BD01480BF090FCD8
:1028700004C7021070B5041E09D0037D042B19D0C3
:10288000072B1ED0032B05D00025280070BD124851
:102890000BF07EFC03F072FC051E01D105232375AD
:1028A000002D15D06B1CF0D1638B0822134363837A
:1028B0000025EAE703F062FC051EF1D1052323752C
:1028C000EEE703F05BFC051EEAD109232375E7E779
:1028D000200003F0CBFDD8E7E0C6021010B5084B8E
:1028E000186800E02000002809D0C468438B1A074C
:1028F000F8D5082293434383FFF7BCFFF2E710BDEE
:1029000008D9002010B508F0ABF98004800C034B07
:102910009C466044024B188010BDC04600C0FFFFBB
:102920005C0C002010B50100037D012B03D00220B8
:10293000FEF7A8F910BD01480BF02AFC20C70210D1
:1029400070B506000D1E0ED0002E0ED0337D002B6C
:1029500011D1002A15D00020032816DC8300254958
:102960005B581B6821E0244DEEE724480DF09AFAED
:102970001020404217E022480DF094FA0620404211
:1029800011E0FFF701FF021E25D0002D03D02B68B8
:10299000002B00D03360F2821A4B1A68F2601E607E
:1029A00004F030F8002070BDDB68002B11D0DC8A09
:1029B0009442F9D1002B11D01968002911D0002DB3
:1029C00012D02C68002C12D0A142EDD10820404238
:1029D000E9E70130C0E702204042E4E70820404236
:1029E000E1E708204042DEE708204042DBE708201C
:1029F0004042D8E7FCCD02106CE5021034C702104B
:102A00004CC702100CD9002070B504001600002835
:102A100029D0037D002B2DD1012B4BD00320FEF7B5
:102A20001FF9051E4AD023690361E38AC38201238B
:102A30000375637D4375637A4372237A0372E37A85
:102A4000C372A37A837223680360E38A002B20D0C9
:102A50001C4B1B68A34214D0002B18D0D968A1428C
:102A600013D00B00F8E718480DF01CFA25001023CE
:102A70005B421AE015480DF015FA0F235B42002562
:102A800013E0DA680F4B1A6001E0E268DA600023B5
:102A9000E3602000FFF746FF0D4BAB610D4B1A685A
:102AA000EA601D6003F0AEFF0023002E00D03370FB
:102AB000280070BD050009235B42F6E701235B4255
:102AC000F3E7C0460CD9002074C70210A4C7021057
:102AD0008D30001014D90020F8B5002817D0456AB1
:102AE000068DA919C26A448E231C8027BF01BC42EF
:102AF00000D93B1C9BB2D318CB1A0BD5521B0CD45C
:102B000080235B029A420BD242850020F8BD064822
:102B10000BF03EFB4685881AF8E700234385F4E76F
:102B200002480BF035FBC046DCC7021000C802109B
:102B300010B5041E16D0037D012B17D0038D591834
:102B400089B28022D201914201D88B4211D98023CF
:102B5000DB0123852000FFF7BFFF80235B01984244
:102B600009D210BD08480DF09DF9FAE707480BF0AF
:102B70000FFB0185EEE7638B022213436383200082
:102B800003F074FCEDE7C0461CC8021034C8021004
:102B900010B5041E08D04068002801D0FEF73CFCA8
:102BA00021000420FEF76EF810BD10B503E00468A4
:102BB000FFF7EEFF20000028F9D110BD10B5002866
:102BC00001D0417510BD02480DF06CF9FAE7C0461E
:102BD0005CC8021070B5051E0DD00420FEF740F849
:102BE000041E06D0142229000CF0F6FF6068FEF7E0
:102BF0005BFD200070BD01480BF0CAFA78C80210D6
:102C0000002800D00161704710B5002804D0037D72
:102C1000012B02D08423C15010BD01480BF0B8FA3B
:102C200094C8021010B5002804D0037D012B02D0F7
:102C30008023C15010BD01480BF0AAFABCC8021095
:102C400010B5002804D0037D012B02D09023C15081
:102C500010BD01480BF09CFAE4C80210002802D015
:102C6000037D012B00D070478161FCE710B500287F
:102C700006D0037D012B07D08C23C150427710BDB5
:102C800003480DF00FF9FAE702480BF081FAC0464D
:102C90000CC9021024C9021010B5002807D0054B3A
:102CA000054A10681A6894466044186010BD0348CD
:102CB0000BF06EFA580C002018D9002044C90210FD
:102CC00010B5002A0ED000290BD00B8E002B08D097
:102CD000282B0AD9283B9BB21A1C834200D9021C1C
:102CE00090B210BD02480BF053FA0023F4E7C0463F
:102CF00060C90210F8B504001E00002856D0002953
:102D00005AD0037D002B5DD10B6843600283007AAB
:102D100000285DD0FEF76EFA0500002D00D172E0AC
:102D2000002C02D02368002B04D12B1D00D16DE0B4
:102D30006B682360E78A002F04D1FFF725FDE0824E
:102D4000002866D02000FFF7A7FF02000021616283
:102D50002065013A6264A265E2658023DB01638538
:102D60002385E1626022A352862080006086221DB6
:102D70002900FFF7A5FF608648230122E252403375
:102D8000E6500221200003F06BF9051E39D1022321
:102D90002375002F29D0204B1B68A3421DD0002B88
:102DA00021D0DA68A2421CD01300F8E71B480DF0CE
:102DB00079F810256D4224E019480DF073F81025BC
:102DC0006D421EE017480DF06DF80A256D4218E0BF
:102DD000201D06F0A1FE05009FE7DA680E4B1A6081
:102DE00001E0E268DA600023E3600F4B1A68E260FA
:102DF0001C6003F007FE0D4B01221A70200003F047
:102E000035FB2800F8BD04256D42FAE704256D4224
:102E1000F7E702256D42F4E70CD9002088C90210BB
:102E2000A4C90210C0C9021008D900206DD9002021
:102E3000002814D0002909D0002A01D001681160AF
:102E4000002B01D0C28A1A8000207047002A01D0CE
:102E500041681160002BF7D0028B1A80F4E706203E
:102E60004042F2E710B50400406F002803D0FFF79E
:102E70009CFE0023636710BD10B5041E22D0037DA5
:102E8000002B1ED00A2B1CD0012B1AD0806F0028DB
:102E900003D0FEF7C1FA0023A367636F002B02D0B3
:102EA0002000FFF7DFFF01235B422386E06EFFF780
:102EB0007CFE206FFFF779FE0023E366236768221C
:102EC000A35210BD01480CF0EDFFFAE7F0C9021063
:102ED00010B50C1E0BD000280CD003688B420CD010
:102EE000002B0FD0DA68A2420AD01300F8E71C4882
:102EF0000BF04EF91B480BF04BF9DB68036001E067
:102F0000E268DA600023E3602000FFF7B5FF237D6D
:102F10000A2B04D0012B02D0638BDA070FD4237D58
:102F2000012B08D0E36E002B10D1236F002B10D1A2
:102F3000636F002B10D100232375E38210BD0222A2
:102F400013436383200003F091FAE8E706480BF08F
:102F50001FF906480BF01CF905480BF019F9C0469B
:102F60000CCA021028CA021048CA021060CA021015
:102F70007CCA0210F0B5D6464F464646C0B584B06E
:102F800004000D0000281CD0037D012B1DD00A2B4E
:102F90001ED0026D9046426A91469022865807697B
:102FA000002B47D1C38A9A46002B4DD02E4B1B686D
:102FB000834215D0002B19D0DA68A24214D0130036
:102FC000F8E72A480CF06EFF2EE029480BF0E0F8F5
:102FD00001002848FFF77CFF2000FFF7A3FC23E057
:102FE000DA68214B1A6001E0E268DA600023E360EE
:102FF0009A460025206F002801D0FFF7D6FDE06E2D
:10300000002801D0FFF7D1FD606F002801D0FFF745
:10301000CCFD002D1AD12000FFF784FC002E03D038
:103020000D2149423800B04704B0E0BCBA46B14671
:10303000A846F0BDC38A9A4601000F48FFF748FF33
:103040000E4B01221A70D5E70025D3E7231D228BF2
:10305000029252460192009323004A4641462000C4
:1030600003F09CF9D7E7C0460CD9002094CA02109F
:10307000B0CA02101CD9002008D900206DD9002048
:1030800010B50121FFF776FF10BD000010B5081E36
:1030900004D0FFF7F5FF0D20404210BD01480BF0B2
:1030A00077F8C046E4CA021010B50B4B1B6800212C
:1030B000002000E0DB68002B08D0084A12681C6A78
:1030C000121B8A42F6D311001800F3E7002801D042
:1030D000FFF7D6FF10BDC0461CD9002018D900202C
:1030E00070B543B2002B02DB002801D11FE07F2026
:1030F0000138C2B20E4B1B680024002006E00D4AC6
:1031000014681A6AA41A0A001800DB68002B0AD097
:10311000597D9142F3D3F8D1064D2D681E6AAD1B3F
:10312000A542F2D3EBE7002801D0FFF7A9FF70BD5D
:1031300008D9002018D9002070B505000C0000281F
:103140000BD10A480BF024F8E668210008480CF07F
:10315000A9FE2000FFF794FF3400002C05D023685F
:103160002A689342F0D0E468F7E770BD04CB021000
:1031700038CB021070B504000D00002802D003689F
:10318000002B00D170BD0D4B1968FFF7D5FF0C4B1C
:1031900019682000FFF7D0FF002DF3D02B68002B1B
:1031A000F0D0084B1B6800E0DB68002BEAD01A68FF
:1031B00021688A42F8D12A681A60F5E708D9002008
:1031C0000CD9002014D9002070B501000300083B81
:1031D000DBB2012B04D80E4B1B680024002003E057
:1031E0000C480AF0D5FFDB68002B0BD01A7D8A4211
:1031F000F9D1094A12681D6A521BA242F3D3140086
:103200001800F0E7002802D00021FFF7B3FE70BDE0
:1032100008D9002060CB021018D9002070B5050035
:103220000220FDF71DFD041E32D0002C2ED0A4225A
:10323000002120000CF0CAFC6575264B6422A352C5
:103240008022D20162852285FF22E2721A32FF3289
:103250006286062240216252E287073A228649327C
:103260003F39A1521C4A126822621C4A1278A27786
:103270004A22A35284231A4AE2501033194AE250D8
:103280000433194AE25004330922E250200070BD91
:10329000FFF724FBFFF708FF0220FDF7E1FC041E07
:1032A000C3D10920FFF790FF0220FDF7D9FC041ECF
:1032B000BBD10820FFF788FF0220FDF7D1FC041ED8
:1032C000B3D12800FFF70CFF0220FDF7C9FC040072
:1032D000ABE7C046A02D000018D900206FD9002010
:1032E0006134001000DD6D00F824010010B54020AD
:1032F000FFF794FF10BD000010B584B0041E13D07A
:10330000002904D0037D042B11D0072B0FD0237D7F
:10331000012B00D167E0022B00D170E0002B47D0D9
:103320002000FFF7A7FA3EE03B480AF031FFA36F09
:10333000002B1CD0638BDB061FD5231D228B029232
:10334000E28A019200932300626A216D200003F05B
:1033500025F82000FFF790FD304B1B68A3420FD0EB
:10336000002B13D0DA68A2420ED01300F8E7228DAA
:103370008023DB019A42DDD1C9E729480AF008FF22
:10338000DA68264B1A6001E0E268DA600023E36045
:10339000244B01221A70244B1B68A34205D0200045
:1033A000FFF7C0FA002004B010BD02F0A7F8F9E75B
:1033B000E38A002B12D01D4B1B68A34206D0002BC2
:1033C0000AD0DA68A24205D01300F8E7DA68174B92
:1033D0001A6001E0E268DA600023E3602000FFF792
:1033E000A1FA0020DFE72000FFF716FA21001048BD
:1033F000FFF76EFD2000FFF72FFA0020D3E7210032
:103400000648FFF765FD074B01221A702000FFF701
:1034100089FA0020C7E7C04670CB021008D9002007
:1034200090CB02106DD9002010D900200CD90020BB
:1034300014D9002010B500280AD0037D012B03D039
:10344000438B1022134343830121FFF755FF10BD27
:1034500002480CF027FD10204042F8E7ACCB0210E8
:1034600010B508001400002909D0002A0DD01189D8
:10347000FFF75EFB2000FDF7CFFF002010BD0648E0
:103480000CF010FD10204042F8E7002B01D0002086
:10349000F4E7FFF7CFFFF1E7C4CB0210F8B5041E45
:1034A00026D0866F777B002383678433C558002D31
:1034B00024D00023320001000069A8470500002D38
:1034C00024D1BB0628D5238D8022D201934201D07E
:1034D000013323858423E658002E1DD02069002364
:1034E00000222100B04703000D3315D1050013E081
:1034F0000A480CF0D7FC10256D420DE00023320085
:1035000001000020FFF7ACFF0500D8E72B000D33CA
:1035100002D0A66705256D422800F8BDE0CB021059
:1035200070B51C4A1378013313701B4B1C6813E0F1
:10353000022213436383200002F098FF638B03226F
:103540009343638313E00822934363832000FFF7D0
:1035500091F90FE0E5682C00002C19D0A27F0D4BEB
:103560001B789A42F6D0A377638BDA07E0D4638B9B
:103570001A07E8D4E568A36F002BECD0074E0023B0
:1035800033702000FFF78AFF3378002BE3D0CCE7BD
:1035900070BDC0466FD9002008D900206DD9002029
:1035A00070B504000E00150000281BD0037D012B10
:1035B00029D000290CD0438B102213434383002DC4
:1035C00016D1806F002803D0FDF726FF0023A367E4
:1035D000002D1BD0237D042B0ED8032B0ED20B20E5
:1035E000404214E00C480CF05DFC102040420EE01C
:1035F0000121FFF781FE0AE0072B09D1F1B220007B
:10360000FFF77AFE03E00B20404200E0002070BD8F
:103610000B204042FBE7C04608CC0210F0B5CE4676
:10362000474680B585B0BA4A136801331360B94A7A
:10363000137801331370B84B1C68002686E1B74835
:103640000AF0A6FDB6480AF0A3FDB6480AF0A0FDB0
:103650002600E4687AE14033E35C052B00D88BE177
:1036600001256FE0B0480AF093FDB0480AF090FDE4
:10367000200002F0F9FB00280CD0A0230022E25425
:103680000133E35C062B00D9A3E00133A132A3543C
:10369000002557E0200002F0E9FE0028EDD10025CA
:1036A00050E0238EA24A934201D80133238630236F
:1036B000E25E4023E35E9A4244DB200002F092FD8A
:1036C000002805D0236F002B3CD1E36E002B39D0AE
:1036D000237D022B15D04223E25C131C0C2A00D957
:1036E0000C23DAB23C21635EDB103E20215E5B18C6
:1036F00090498A5C93408E4A934220DC1BB2402260
:10370000A352002323866033E25A183BE15A131C6C
:103710008A4200D90B1C9BB25B084A22A352618EDD
:103720004A0092B2934201D24A23E2524823E15224
:1037300022330022E252200003F034F802E07E4BF4
:10374000DDE70125217D062945D0637A082217008F
:103750001F401A4204D0042949D0072947D0002726
:10376000636F002B0AD06A4B1A68236AD21A40236F
:10377000E15E4B005B185B009A426AD2237D032B0B
:103780006BD0092B72D0002D79D1E568237F0133EE
:10379000DBB22377627F934200D2D5E00023237708
:1037A000664A13708C33E358002B00D1A7E0210048
:1037B00020699847614B1B78002B00D03BE700281D
:1037C00000D19EE026002C00C0E00125BAE70025CC
:1037D000B8E70025B6E7638BDB06B6D54C4B1B6814
:1037E000226A9B1A282BB0D90135EDB2ADE7484BC0
:1037F0001F68236AFF1A9423E35898469C23E058D5
:10380000043BE358994658434044FA2149000BF0E1
:10381000B3FD874203D90135EDB20127A0E7A32309
:10382000E05C4B4658434044FA2149000BF0A4FDAC
:10383000874201D8002793E7200002F0D7FF002835
:1038400005D1A322A35C0133A354002788E70027F6
:1038500086E72000FFF706FB90E72D4A1268216AF1
:10386000521A282A8DD90135EDB28AE7284B1B68F8
:10387000226A9B1AF02B86D90135EDB283E790239B
:10388000E5582000FFF7F8FA002E20D0224B1B68E5
:103890009C4219D0E368F360002F23D12369984636
:1038A000E7682000FFF73EF8244B00221A70002D35
:1038B00003D00D2149424046A847204B1B78002BDE
:1038C00000D0B8E63C0041E01D480AF061FC124B14
:1038D0001B689C4203D1104BE2681A60DCE7194870
:1038E0000AF056FC231D626A216D208B0290E08A4B
:1038F000019000932300200002F050FDCEE700204D
:1039000058E7200002F0B2FD26002C001EE0C04661
:1039100018D900206FD9002008D9002024CC02102B
:1039200050CC02107CCC0210A8CC0210DCCC0210CF
:10393000FE7F0000ECCD0210FF7F00006DD900205B
:1039400014CD021040CD021026002C00002C46D0D1
:10395000237D002B00D172E6012B00D172E60A2BE9
:1039600000D172E6A17F394A1278914200D16FE608
:10397000A277022B00D16EE64223E35C0B2B00D929
:10398000DFE6A123E55C002D00D18AE6236F002B42
:1039900000D067E6E36E002B00D166E6A223E35C6D
:1039A0000B2B00D911E7013D294B5A5DA023E35CA5
:1039B000934202D20133A0216354A023E35C9342DB
:1039C00000D204E76023E15A002900D050E620002D
:1039D00002F030FF002800D14FE60025B2E61D4B73
:1039E0001D6812E01C480AF0D3FB2800FFF744FAD8
:1039F000002C1BD0174B1B689D4214D0EB68E36072
:103A0000EE682800FEF78EFF3500002D19D02B7DC3
:103A10000A2BE7D1114B1B682A6A9B1AF02BE4D8BA
:103A20002C00ED68F1E70E480AF0B2FB094B1B6869
:103A30009D4203D1074BEA681A60E1E709480AF0A2
:103A4000A7FB05B0C0BCB946B046F0BD6FD9002099
:103A50000CCE02101CD900206CCD021018D9002009
:103A60009CCD0210C4CD021010B5FFF759FD054AD8
:103A700013780133DBB21370DB0700D410BDFFF7FE
:103A8000CDFDFBE76ED900200B4A1388591C11802D
:103A90000A4A1168002903D0094A1288934204D2C5
:103AA000084A1268D318187D7047DBB2D2B29B1A4D
:103AB000DBB2C85CF8E7C04652D9002024D9002008
:103AC00054D9002020D9002070B5041E1FD0204BEF
:103AD0001B88002B3AD01F4B00221A801D4B1A88DE
:103AE0001B4B1B889A4231D2FFF7CEFF0128F5D03D
:103AF00002280FD0002829D0FFF7C6FF03000128B5
:103B000024D9144A1088C01802381080E6E71248F9
:103B10000AF03EFBFFF7B8FF042817D10D4B1B88B6
:103B200001330B4A1288934210DAFFF7ADFF85B2DA
:103B30002D02ADB2FFF7A8FF80B205436B1E9BB20A
:103B4000064A934200D9064D6586C7E770BDC04658
:103B500056D9002052D9002014CE0210B30500001F
:103B6000B405000010B5041E05D00E4B1B78DB0613
:103B700004D4002010BD0C480AF00AFB438BDB067E
:103B800007D49023C358002B03D00F21494200696A
:103B9000984721000548FFF79BF92000FEF7C2FE79
:103BA0000120E7E76BD9002030CE021008D90020B1
:103BB00070B584B01E4B1B785A072FD4002821D033
:103BC0009A0722D51B4B1A68436AD11A22D4018D59
:103BD0005B189B1A1ED4184B1D68184B184909888E
:103BE0008A18184909682E786C78240234430294A4
:103BF000AE78EC782402344301941C1F009402F048
:103C0000CDFB0BE010480AF0C3FADB0702D50F4BDF
:103C10001B6803620A4B1B88002B01D104B070BDE6
:103C2000438B02221343438302F020FCF6E7C04695
:103C300064D90020D4D7002020D90020943B002054
:103C400058D900203826002058CE021018D900205C
:103C5000F0B585B004004A4B1B785A0705D40028FC
:103C600005D0DA0606D49B0720D405B0F0BD454840
:103C70000AF08EFA444B1E68444B454A1188454A67
:103C800012688A18444909681D00143D686837782D
:103C9000747824023C430294B778F47824023C43BD
:103CA00001941035009502F092FBDEE7407DFFF7AE
:103CB000B5FA051E50D0394B5A6902601B69436042
:103CC000E38AC382304E3268117853781B020B436B
:103CD0000383032303752F4F3B6801334362C362A1
:103CE000FEF7DAFFA86528656864E8653B68013B74
:103CF0006B6523692B61EC67627A0C2313406B724E
:103D0000237A2B72264B1A68EA601D6002F07AFE55
:103D1000244B01221A702800FFF7D6FE3268917BEF
:103D2000D37B1B020B436022AB520232AB526E8E2E
:103D30002C1D200005F0F0FE010022003000FEF7EF
:103D4000BFFF68861221280002F08AF9002812D1EC
:103D5000280002F08BFB88E7134984228B5A013339
:103D60008B52A369002B00D17FE7833A206952422E
:103D70000021984779E700212800FFF7FBF874E756
:103D800064D9002078CE021020D90020943B002076
:103D900058D90020D4D7002038260020803B0020AE
:103DA00008D900206DD900209C3B0020F8B5CE46F4
:103DB000474680B507000C0099460BE027480AF0FB
:103DC000E7F94B46002B01D02C0003E024480AF011
:103DD000DFF92C00002C3BD0224B1E6821690879AA
:103DE0004B791B0203438A7912041343C8790006F6
:103DF0001843FCF7A4FB05002389984623691A7B26
:103E0000587B00021043FCF795FB83071ED001206E
:103E100040442D18761B1BD425686068FDF73AFCDA
:103E20006623FB5A9842C9D81B1A6626BB532389BE
:103E30000D4A11885B1813802000FEF7A9FEBB5BBA
:103E4000002BC6D0002DBCD02C00C3E70020DFE73C
:103E50002000C0BCB946B046F8BDC04698CE02109E
:103E6000C0CE02103826002050D9002070B50600C0
:103E70000D0000280DD003691A7B587B0002104307
:103E8000FCF758FBC3070CD52800FEF78EFE002573
:103E900048E029480AF07CF92C682800FEF778FEF3
:103EA0002500002D2BD03189244B1B68C9182C69A3
:103EB0002379607900021843A27912041043E37950
:103EC0001B0603432A899B18CB1A18D4237B607BDB
:103ED00000021843FCF72EFBC307DDD533691C7BBA
:103EE0005B7B1B021C430120FCF724FB326920434F
:103EF00083B2FF21084010731B0A5373CCE7002DD7
:103F000010D0286903794179090219438279120492
:103F10001143C3791B060B433289084909685218BB
:103F20009A1A01D4356070BD591A89B2318170680E
:103F3000FDF770FBF6E7C046E0CE0210D4D70020B4
:103F4000F0B583B0041E65D0037D032B65D9B04B5B
:103F50001B78DB0600D434E16023C05AA36DC5187A
:103F6000616DAC4A12688E1A0DD4914258D0AA499C
:103F700009688B4219D1A94B19688E7BCB7B1B0238
:103F80003343984211D2A54B1968887BCB7B1B0227
:103F90000343602163520231615A8B4201D962218D
:103FA000635262659C4B1B68A365626C9A4B1B68ED
:103FB000D11A3FD49A490988002900D0F9E060312C
:103FC000615AA06D84466144A94200D0F1E03020DE
:103FD000215E002900DAECE09A4200D0E9E04323B8
:103FE000E35CFF2B02D001334322A3544323E35C61
:103FF000032B08D94822A15A628E8A1892B29142A4
:1040000013D848216252022B00D8D2E0200002F0DF
:1040100091F9CEE083480AF0BBF883480AF0B8F87B
:104020007D490968591AA2D5ADE7482201214942C4
:10403000A152E8E7991A012900D5B7E0216DC91A04
:1040400000D5B3E0618B480709D504208143618323
:104050004A21605A02396052223100206052002504
:10406000422165543C21605EE18FC0100918402058
:10407000215299B292B28A1A92B243216554636472
:104080004823E05A0233E35A98424FD2638B1B0510
:1040900045D54239638E594389B20B1C914200D9F0
:1040A000131C9BB2C3189BB298423AD84822A35221
:1040B000E36E5E4A216F2000FFF778FE0300206761
:1040C0005B4AE16E2000FFF771FEE066216F002978
:1040D0004DD0002323860023237700284BD0642271
:1040E000A35A544D2D885B19A352638B1B0560D5D1
:1040F000002944D0096908794A79120202438B7970
:104100001B041A43C87900061043FCF718FAE36C45
:10411000C01A4ED4638B484A1340638349E002219E
:10412000B8E7482301225242E252C1E76A23E35A28
:104130009A1892B2934210D86A23E2526A23E35A41
:104140009842B5D81B1A6A22A352638EC3189BB239
:10415000984207D8223AA352AAE76A230122524280
:10416000E252EBE7482301225242E252A0E7012348
:104170005B422386AFE768330022E252AFE70028B4
:104180000FD0016908794A79120202438B791B0426
:104190001A43C87900061043FCF7D1F9E36CC01A42
:1041A00007D4638B244A1340638302E0200002F0AB
:1041B0002BF9636B002B04D0174A1268A16B8A1A83
:1041C00040D4174B1B88002B00D197E3227D062A91
:1041D00000D993E3606A0F4A1268811A012900D559
:1041E00077E09B181B1A012B73D4144B58680028D6
:1041F0004ED0134B99424ED889B203898B424DD38E
:104200000E4A13895B1A13810289521A92B24EE048
:1042100064D90020D4D700203826002020D90020DF
:1042200058D9002008CF021024CF021040CF02102E
:1042300048CF021050D90020FFF7FFFF6C3B002051
:10424000FEFF0000B74A17889BB2F81A80B23C22E2
:10425000A65EF510ADB2401B81B202B2B6B28919AA
:1042600009B2A18700040FD43E23E05E8310D31A65
:104270009BB280B21B189AB2E387C9105118402331
:10428000E152002363639CE7DA1BAA1812B2EBE742
:10429000A54809F07DFFA54809F07AFFA44809F078
:1042A00077FFC91A89B202810023438100684389DC
:1042B0008B42F6D3FDF770F8636A9E4A13609E4AFC
:1042C00012691371190A5171190C91711B0ED37176
:1042D00001E0121A13D4974B1F68626ABB1A00D50B
:1042E00008E3238DD318DB1B012B00D502E3974293
:1042F0000AD0656F002D00D1E8E1002609E2638B4A
:10430000022213436383E6E78B4B1D891B691A7BEB
:10431000587B00021043FCF70DF9830716D00123E8
:10432000ED18ADB2854A1580228D954210D8636F85
:10433000002B69D0804B1B691A7B587B000210430D
:10434000FCF7F8F8C3075CD4656F90E00023E7E75B
:10435000794B1B691A7B587B00021043FCF7EAF883
:10436000C3072FD4228D744B1A811B691A7B587B8B
:1043700000021043FCF7DEF8830703D56E4A138969
:10438000013B13816C4D29896868FDF743F92E893B
:104390002B691A7B587B00021043FCF7CBF883078C
:1043A00029D001239B199BB2644A1380614A126889
:1043B0009B18228D616A8C4662449342B7D0604854
:1043C00009F0E6FE5C4E33691A7B587B000210430D
:1043D00005B25C4B1D40FCF7ADF83E231840FCF7DE
:1043E000A9F803B231692B439AB2FF2003400B7343
:1043F000120A4A73B6E70023D4E703686367FEF73F
:10440000C7FB606F0028F8D14C4B1A88494B1B68DA
:10441000D3186362238D9A4200D9D2E09B1A238578
:104420002000FEF759FB444B5B681A89002A04D030
:10443000454A1360404B00225A603F4B1B691A7B70
:10444000587B00021043FCF775F8C30700D4DEE088
:104450003E4A137820210B431370D8E000239B19A8
:10446000364A13802E682800FEF792FB3500002D97
:1044700042D0324B18882F4B1B68C01829690B7922
:104480004E7936021E438A7912041643CB791B06F5
:1044900033432A899B18C31A2ED40B7B487B000216
:1044A0001843FCF747F8C307DCD5234B1B691A7B7D
:1044B000587B00021043FCF73DF88307D2D41E4F0F
:1044C0003B691E7B587B000206430120FCF732F853
:1044D0003A69304383B2FF21084010731B0A5373BB
:1044E0003E893B691A7B587B00021043FCF722F897
:1044F0008307B3D00123B2E7002D11D029690B79CE
:104500004A7912021A438B791B041A43CB791B0692
:104510001343084A1168094A128852189A1A17D484
:10452000656771E718D9002050CF021060CF0210E4
:1045300070CF0210D4D700206C3B002058D9002047
:1045400080CF0210FFC0FFFFC8D600206BD900202B
:104550005B1A9E4A138113691A7B587B0002104331
:10456000FBF7E8FF830703D5984A1389013B1381C2
:10457000964E31897068FDF74DF8378933691A7B9B
:10458000587B00021043FBF7D5FF830717D00123A8
:10459000DB199BB28E4A13808E4A12689B182869D9
:1045A0000279417909021143827912041143C279D7
:1045B00012060A439342B3D0874809F0E9FD00236D
:1045C000E6E7864809F0E4FD00233DE000234CE0E7
:1045D000834809F0DDFD002355E0824B196000237C
:1045E0006B602B691A7B587B00021043FBF7A2FF1C
:1045F000C30707D57C4A137820210B431370237D12
:10460000042B52D02B6863672800FEF7C1FA656F50
:10461000002D4DD029690B794879000218438A7919
:1046200012041043CB791B060343626A93423FD1C5
:10463000684A13602E890B7B487B00021843FBF706
:1046400079FF8307C0D001239B19626A94466344B3
:104650006362268D2F892B691A7B587B00021043D9
:10466000FBF768FF8307B1D00123DB199E42AFD36C
:104670002E892B691A7B587B00021043FBF75AFFE7
:104680008307A8D001239E19238D9B1B238520001F
:10469000FEF722FA69680B89002BA2D0514B1868EB
:1046A00000289AD0FDF714F899E703332375A9E79A
:1046B000638BDA0706D501229343638302221343F7
:1046C000638329E101221343638325E13F48FEF719
:1046D00081FA606704E03D4B1A892B899A4203D81E
:1046E000200001F091FE17E13848FEF773FA002828
:1046F000F6D0002E04D030602900FFF7B7FBEFE7BB
:104700006067F9E7FA1A4BD42A682E00002A58D0BD
:104710001500002DE4D02869017942791202114375
:1047200083791B040B43C279120613439F42D2D0F4
:10473000002EE7D031690A79944601914A79120234
:10474000614611438C4601998A79120461461143EE
:104750008C460199CA79120661460A43BA1A012A9F
:10476000D2D4DA1B012ACFD41848FEF733FA071E39
:10477000B6D0184B196830690379427912021A438E
:1047800083791B041A43C3791B06134332899A1891
:104790008A1A0FD4376029003800FFF767FB9FE7BC
:1047A0000A48FEF717FA00289AD060672900FFF739
:1047B0005DFB95E7C91A89B231817068FCF72AFF61
:1047C000E8E7DB1B12D41500A3E7C0466C3B0020D2
:1047D00058D90020D4D70020B8CF0210F4CF02104F
:1047E00014D00210C8D600206BD90020037B407B78
:1047F00000021843FBF79EFEC30700D570E7474849
:10480000FEF7E8F92860002800D169E7444B1968F1
:1048100028690379427912021A4383791B041A43E7
:10482000C3791B0613432A899A188A1A41D4238D07
:10483000626A944663443B4A1288394909685218AF
:104840009B1A00D44CE72B681B691A7B587B00022B
:104850001043FBF76FFEC30732D4238D626A944680
:1048600063449BB22E4A12689B1A2A6813812B68F4
:1048700019895868FCF7CEFE2B681D891B691A7BC5
:10488000587B00021043FBF755FE830730D001230D
:104890005B199BB2234A1380214A12689B18228D10
:1048A000616A8C466244934200D119E71E4809F0C0
:1048B0006FFCC91A89B229816868FCF7ABFEB6E7BC
:1048C0002B681B691A7B587B0002104306B2174BFA
:1048D0001E40FBF72FFE3E231840FBF72BFE03B2D2
:1048E0002A68116933439AB20B73120A4A73B4E708
:1048F0000023CDE7200001F087FD0DE0084B1A688A
:10490000636AD11A04D4218D5B189B1A012B03D53D
:10491000638B02221343638303B0F0BD6C3B002022
:10492000D4D7002058D9002080CF0210FFC0FFFF4D
:10493000F0B585B0041E16D0B34B1B785A072FD59F
:10494000027D022A12D0436AB04909688B4216D010
:10495000CA1A10D4028D9B185B1A0CD4438B022206
:104960001343438307E0AA4809F012FCA94B1B68D4
:10497000016D994203D00025280005B0F0BD002A42
:104980000BD0A54A137808210B431370638B0122C7
:10499000934363830E256D42EEE7A04809F0F8FBD0
:1049A0009B0704D5037D023BDBB2012B22D8638B2E
:1049B000DB0602D49A4B1B6823620023A322A35474
:1049C000013AA3542000FFF77FF88F4B1A78022397
:1049D00018001040134205D0237D023BDBB2012BAF
:1049E00000D930E2237D092B00D92EE29B008D49AE
:1049F000CB589F46438B0222134343830025BBE7DA
:104A000012231340122B03D0D30673D40025B3E72F
:104A1000636C01337F4909688B42F5D17B4B1A687F
:104A2000531C6362E36261647F4B1968887BCB7BB4
:104A30001B0203436021635202316352013A6265F3
:104A400004232375668E251D280005F065F80100F6
:104A50002A003000FEF734F96086810043001A0016
:104A6000724DAB4200D22A0091422CD2800080B21B
:104A70004823E0521E33E35A002B2CD0013B662220
:104A8000A352206F002829D003682367FEF780F81F
:104A9000236F002B2BD00023238600224233E254C5
:104AA0008823E358002B08D0002221002069984772
:104AB000050003000D3300D15EE7638B0222134330
:104AC0006383002558E7594A934202D9400080B2D7
:104AD000CEE75648CCE7564809F05AFBE06E00286E
:104AE00002D00368E366D1E7524809F051FB013B6D
:104AF0002386D5E74C4B1E684F4B504A1188434ADA
:104B000012688A1843490968377870780002384378
:104B10000290B778F078000238430190181F009097
:104B2000200001F03BFC4223E35C052B01D900256A
:104B300022E700232386200001F046FE00251BE724
:104B400000280CD0636A013B304A1268934201D0BE
:104B5000002511E7200001F09BFB00250CE7D306A0
:104B600000D474E12B4B1968636CCB1A012B6BD406
:104B7000236D5B1A68D404232375E36F002B2FD0B9
:104B80009B69002B29D00022210020699847051E2F
:104B900028D12000FFF7D4F9294B1B88002B02D025
:104BA000013B274A1380638E98005A0011001F4E64
:104BB000B24200D2310088421DD29B009BB24822F3
:104BC000A352154B1B789B0600D4D5E6638B0222BB
:104BD0001343638307232375CEE61A4809F0D8FAF6
:104BE00006256D420D3502D10D256D42C4E620002B
:104BF000FEF746FAF8E70D498A4202D95B009BB2FC
:104C0000DDE70A4BDBE7C04664D90020D4D700209B
:104C100038D00210382600206BD9002054D0021062
:104C200018D90020C0D0021020D900201C1100008B
:104C300074D002108CD00210943B002058D9002070
:104C400050D90020A0D00210864B1D68864B874AA1
:104C50001088874A126882182E78687800023043DC
:104C60000290AE78E878000230430190181F00905F
:104C7000200001F093FB00257EE62000FFF760F99D
:104C80007C4B1B789B0600D4E3E0638B022213432A
:104C900063830723237500256EE62000FFF750F994
:104CA000744B1B789B0639D5734B1B78DB0604D5F8
:104CB000724B1B68226D9A4207D0638B022213430A
:104CC000638308232375002556E6E36E002BF4D199
:104CD000628B0233134363832000FEF7CDF8684BE9
:104CE0001B689C4206D0002B0AD0DA68944205D09B
:104CF0001300F8E7DA68624B1A6001E0E268DA60F4
:104D00000025E5605F4B01221A700A2323755E4B74
:104D10001A68E2601C6001F075FE2DE6564B1B78A8
:104D2000DB0600D497E0554B1B68226D9A4201D0F8
:104D3000002521E6E36E002B01D000251CE606339A
:104D40002375002518E62000FFF7FAF8494B1B7879
:104D50009B0601D400250FE6638B02221343638375
:104D60002000FEF789F8464B1B689C4206D0002BBA
:104D70000AD0DA68944205D01300F8E7DA68404BAD
:104D80001A6001E0E268DA600023E3603D4B012233
:104D90001A700A2323753C4B1A68E2601C6001F00C
:104DA00031FE0025E8E52000FFF7CAF8324B1B78FA
:104DB000DB0652D5314B1B68226D9A4201D000258B
:104DC000DAE5E36E002B01D00025D5E52000FEF7E3
:104DD00053F82B4B1B689C4206D0002B0AD0DA6894
:104DE000944205D01300F8E7DA68254B1A6001E019
:104DF000E268DA600023E360224B01221A700A2382
:104E00002375214B1A68E2601C6001F0FBFD002550
:104E1000B2E52000FFF794F8174B1B78DB061ED590
:104E2000164B1B68226D9A4201D00025A4E5E36E63
:104E3000002B01D000259FE50E4A137810210B436B
:104E40001370002598E5002596E5002594E50025DA
:104E500092E5002590E500258EE500258CE50025EE
:104E60008AE5C04620D90020943B002058D9002074
:104E7000D4D700206BD9002064D900203826002028
:104E800008D900206DD900201CD90020F0B5C646F5
:104E900000B586B0051E1AD09B497A228B5A013381
:104EA0008B529A4B42681A604389132B12D8822284
:104EB0008B5A01338B5294497E228B5A01338B5289
:104EC0002800FCF7A9FA06B080BCB846F0BD9048AF
:104ED00009F05EF98F4B1968586905F0A4F80028AD
:104EE00015D18C4B5A69F0231340E02B0FD08A4B1D
:104EF0002A89191D009106212800FBF7F5FD0028DD
:104F00000BD0814980228B5A01338B52D3E77E49E3
:104F100088228B5A01338B52CDE77C4B1B681A7B5E
:104F2000587B00021043FBF705FB010BC9B2890057
:104F3000C9B213292BD98BB22A89934227D81A00D8
:104F4000143A92B27548028075480024046068895A
:104F5000834222D92B68002B00D18AE0142128003B
:104F6000FCF71AFA6C896F4B1C806C4B1F883E1B38
:104F7000B6B221002800FCF70FFA28684389B34233
:104F80007AD2614982228B5A01338B5293E75E4970
:104F900082228B5A01338B528DE7624B1A80280094
:104FA000FCF7FAF9594E3468237860780002184308
:104FB000FBF7C0FA2070000A60703468A378E078CC
:104FC00000021843FBF7B6FAA070000AE0703468DC
:104FD0002079627912020243A3791B041A43E07913
:104FE00000061043FBF7ABFA2071030A6371030C50
:104FF000A371030EE3714C4B18603468207A627A17
:1050000012020243A37A1B041A43E07A00061043FB
:10501000FBF795FA2072030A6372030CA372030E66
:10502000E372424B18603468A37BE07B00021843B4
:10503000FBF780FAA073000AE07333681A7B587B91
:1050400000021043FBF776FA3F231840384B1870E4
:105050002B89384A1380820705D05A1C92B23549F1
:105060000A80934221D8344B1B689C461C000022C6
:1050700035E0324809F08CF8294B42681A6031005B
:10508000FCF78AF92B89E41B1C19A4B22C816B89CB
:10509000002B07D12B681B899C4200D182E728484E
:1050A00009F076F8274809F073F8174982228B5ADD
:1050B00001338B52FFE6244809F06AF8234809F0CF
:1050C00067F8234809F064F8278B104B19680E78AD
:1050D0004B781B0233439F423CD02200E468002CF3
:1050E00056D0237D002BE6D00A2BE7D0012BE8D049
:1050F000217A0029E8D0074B5F683C23FB5C013331
:10510000DBB29942E0D0E8E79C3B002020D90020A8
:10511000E8D00210803B0020903B002056D90020B0
:1051200024D9002054D90020D4D7002038260020CC
:1051300064D9002058D9002008D9002000D10210DD
:105140001CD1021010D102103CD1021064D1021007
:1051500090D10210E78A8E78CB781B0233439F42AE
:10516000BBD1BB4B1B6961689942B6D1B84B5B6937
:1051700021689942B1D1E3689C4251D0002A52D0B3
:10518000D3606346E360B34B1C60E3689C4250D03D
:10519000002C51D0002C00D14CE1AF4A0023136009
:1051A000298911815560AD4909681161AC4A1360C4
:1051B000AC4A1370AC4A1380030703D56B7B012202
:1051C00013436B73A36F002B0DD02000FEF766F91D
:1051D0000D3000D1A9E0A36F002B04D0A34B1B8896
:1051E000002B00D0A1E0A24B1C602000FFF7A0FB29
:1051F0000D3000D1A1E09B4B1B781B0700D4B0E021
:105200009023E358002B03D00E2149422069984790
:1052100021009048FDF75CFE2000FDF783FB8CE049
:10522000944808F0B5FF94498E228B5A01338B5273
:10523000ABE7924808F0ACFF914B1C680CE091483A
:1052400008F0A6FF218B854B1A68167853781B024D
:105250003343994211D0E468002C26D0237D0A2BD9
:10526000EDD1227A002AEDD0794B59683C23CB5CF2
:105270000133DBB29A42E5D0EDE7E18A9678D37844
:105280001B0233439942E6D1714B1B6962689A4213
:10529000E1D16F4B5B6922689A42DCD12000FEF7B6
:1052A00087FC2800FCF7B8F80DE6774B1B689C4696
:1052B00005940AE0DF8A694A1668B178F27812022A
:1052C0000A4397420FD00593DB68002B14D01E7A57
:1052D000002EEFD05E4A51683C228A5C0132D2B285
:1052E0009642E7D0EFE71A68594E7669B24203D08A
:1052F000002B01D0002AE6D1002B00D14AE7059A05
:10530000002A0CD0D968D1606246DA605E4A136028
:105310001800FEF79DFC2800FCF77EF8D3E5564800
:105320008E21425A01324252F2E7638D002B14D093
:1053300051497E228B5A01338B5200234C4A136011
:10534000474A1360444B5868002800D1BBE5FCF77E
:1053500063F8414B00225A60B5E5200001F054F893
:10536000E6E7414B1A88002A0BD08023E358002B34
:1053700004D02100206998470D30DED03A4B00223E
:105380001A802000FEF7EEFB0028D6D1344B1A68B5
:10539000002A15D0A36F002B29D1638BDB0629D4FB
:1053A0008423E558002D2CD0002321002069A84734
:1053B00003000D33C1D0002802D0294B1B68A3671E
:1053C000284B1B789B0606D5A36F002B1FD0597B5B
:1053D00020220A435A73264B00221A602000FEF74F
:1053E000C1FB0028A9D1200001F040F8A5E727481B
:1053F00008F0CEFE1000FCF70FF82000FDF740FE8D
:105400009BE7002321001800FEF72AF8D0E7238D40
:105410008022D201934201D0013323858423E558B1
:10542000002DD8D000231A0021002069A8470D3094
:10543000D1D182E7094B1B681A7B587B00021043CD
:10544000FBF778F8430723D52800FBF7E5FF3AE59B
:10545000803B002008D900206C3B002020D9002090
:10546000C8D600206BD9002050D9002058D9002080
:1054700010D90020B8D102109C3B0020E4D10210CA
:105480001CD9002010D2021014D9002040D20210E2
:10549000144B88215A5A01325A520A395A5A013247
:1054A0005A52114B1F68114B9846114A1188114AE4
:1054B00012688A18104909681E00143E70683C780A
:1054C000A4467C78240263461C430294BB78FC7893
:1054D00024021C43019410360096434600F077FFE7
:1054E000B2E7C0469C3B002020D90020943B00201E
:1054F00058D90020D4D7002038260020024A13783B
:1055000010210B43137070476BD9002010B5002891
:1055100019D0037D042B05D0072B03D0022B01D01B
:10552000032B39D100293AD06423C35A8B420DD3BF
:105530006623C35A1F2B10D8002B22D0036F002BD9
:1055400017D000202CE0174808F022FE438B802261
:10555000134343830120404222E0134984228B5AA3
:1055600001338B52438B80221343438301204042FB
:1055700016E0C36E002B01D0002011E00B4808F0AC
:1055800007FE036F002B04D1C36E002B01D1002056
:1055900006E0074808F0FCFD0B20404200E0002038
:1055A00010BDC0465CD202109C3B00207CD2021091
:1055B000B8D2021010B5002805D043689B7B012BA0
:1055C00004D1002010BD024808F0E2FD0120F9E7F7
:1055D000ECD2021010B500290AD049680800143036
:1055E000920004231A4014328A18824203D110BD5B
:1055F000024808F0CDFD024808F0CAFD14D302109D
:105600003CD3021070B50C0011001D1E11D0049B7C
:10561000002B11D0A0229200FBF750FF002807D0EA
:105620000368002B0BD143891B1B2B800481448111
:1056300070BD044808F0ACFD034808F0A9FD03481C
:1056400008F0A6FD50D3021074D3021094D30210B8
:10565000F0B5D6464F464646C0B506000F00904608
:10566000994608AB1B789A4600284BD000294CD0AD
:105670009D0004200540FBF7F3FA041E48D0534672
:1056800003730023036047603B89AAB2934243D36C
:105690009B1A03810023438114213800FBF776FE17
:1056A00000283CD163685F682761F08AFAF742FFFF
:1056B0003870000A78702769308BFAF73BFFB870B2
:1056C000000AF87027694846FAF739FF3871030A6B
:1056D0007B71030CBB71000EF871A8080530000344
:1056E000256943461843FAF725FF2873000A6873B3
:1056F000236900229A74DA742000E0BCBA46B146ED
:10570000A846F0BD0B4808F043FD0B4808F040FDEB
:105710003800FBF781FEEFE7084808F039FD08493B
:105720008C228B5A01338B522000FDF731FA002472
:10573000E2E7C046A8D30210C8D30210ECD302108F
:105740009C3B0020F0B5DE4657464E464546E0B548
:1057500083B001900D001E000CAB1B889B460DAB67
:105760001B889A460EAB1B7899460FAB1B88984650
:105770008A1891B2A022143189B292002220FBF73C
:105780009DFE071E38D042892B00133393423BDA2B
:1057900044685846FAF7CEFE2070000A6070504602
:1057A000FAF7C8FEA070000AE0702671330A637130
:1057B000330CA371360EE6710198FAF7C0FE207221
:1057C000030A6372030CA372000EE072A80805308E
:1057D000000380B24B461843FAF7ACFE2073000A70
:1057E00060734046FAF7A6FEA073000AE073002338
:1057F00023746374A374E374380003B0F0BCBB4635
:10580000B246A946A046F0BD014808F0C1FCC0461A
:1058100004D4021010B584B0041E13D0408D039040
:1058200010200290208B0190E08A0090606AFFF7C0
:1058300089FF002804D0638D626A94466344E36262
:1058400004B010BD014808F0A3FCC04634D40210D7
:10585000F0B585B00500080016000AAC04CC248819
:105860000CA90F88002B1AD0002A1BD0FAF767FE6C
:105870000300402203922C3A0292019700940022E6
:1058800000213000FFF75EFF041E05D00023002238
:1058900001002800FFF79EFE200005B0F0BD034880
:1058A00008F076FC024808F073FCC0465CD4021095
:1058B00078D4021010B5002802D0007A002803D155
:1058C000100004F029F910BDFBF794FCFBE7000081
:1058D000F0B5C64600B584B004000D0016000028DF
:1058E0000CD000290DD0002A0ED0FFF763FE00284F
:1058F0000DD0002004B080BCB846F0BD474808F089
:1059000047FC474808F044FC464808F041FC27693A
:10591000686AFAF714FE3872030A7B72030CBB72D2
:10592000000EF8722769688DFAF704FEB873000A52
:10593000F8736B8D6A6A94466344EB62276914239B
:105940009846B844237BDB0740D43022AB5E002B63
:105950004BDB6B6B002B4BD06268236951685B1A81
:105960009BB25189C91A518161680A89D31A0B8186
:1059700062682369536000221A745A742769227B73
:105980009200042313401433FB18984542D12B1D79
:10599000984663681A89434600932B000621606885
:1059A000FBF7A2F83874000A78741F4978228B5AE2
:1059B00001338B52EB7A60680296723A0192AA7AAE
:1059C00000924246290004F017FB93E72A1D31009C
:1059D0001648FDF775F981239B041843FAF7AFFDCC
:1059E000786118239846B844AFE700232B86B0E7C8
:1059F0000F4B1B686B63216908794B791B020343CA
:105A00008A7912041343C87900061843FAF797FD00
:105A1000A863A1E7074808F0BBFBC04694D4021076
:105A2000B4D40210D4D402109C3B0020B405000072
:105A300018D900203CD30210F0B5CE46474680B5B9
:105A400085B006000C00170098460C9B002B2AD04E
:105A50004B6899460A89434600933B000621200083
:105A6000FBF742F84B461874000A5874002E1DD0FC
:105A7000F37AB57A0F487821425A013242520C9A91
:105A8000029206220192009542463900200004F05D
:105A9000B3FA05002000FBF7BFFC280005B0C0BC2E
:105AA000B946B046F0BD044808F072FB0025FF235C
:105AB000E0E7C0469C3B0020F8D40210F0B583B06C
:105AC00005000C0016001F0000290ED01A0031003E
:105AD000FFF7F0FE00280BD000903B0032002100C1
